:100000008EC30000C4C30000C2C30000C0C3000010
:10001000BEC30000BCC30000BAC30000B8C30000E8
:10002000B6C30000B4C300000C94D7300C94A331C5
:100030000C94BE2AACC30000AAC30000A8C30000F1
:10004000A6C30000A4C30000A2C30000A0C3000018
:100050009EC300000C94462B9AC3000098C3000076
:1000600096C3000094C3000092C3000090C3000038
:100070008EC300008CC300008AC3000088C3000048
:1000800086C3000084C3000082C3000080C3000058
:100090007EC300007CC300007AC3000078C3000068
:1000A00076C3000074C3000072C3000000000000AB
:1000B000000000000000000000000000E200280036
:1000C000000000004278A500AE0019086C65645F6E
:1000D0007461736B3A20253032580A004F6E657395
:1000E000686F743A206163746976653A2025640A02
:1000F0000044454255473A2064697361626C656407
:100100002E0A0044454255473A20656E61626C658F
:10011000642E0A000A0025303862003A200025309B
:100120003258000A722F632030313233343536377B
:100130000A00726762206D61747269782073657459
:1001400020666C616773205B25735D3A2025750A14
:1001500000726762206D6174726978207365742023
:100160007370656564205B25735D3A2025750A0010
:10017000726762206D61747269782073657420689B
:100180007376205B25735D3A2025752C25752C250B
:10019000750A00726762206D6174726978206D6FF4
:1001A0006465205B25735D3A2025750A00726762DD
:1001B000206D617472697820746F67676C65205B6D
:1001C00025735D3A207267625F6D61747269785F52
:1001D000636F6E6669672E656E61626C65203D2097
:1001E00025750A007267625F6D61747269785F6974
:1001F0006E69745F64726976657273207267625F9C
:100200006D61747269785F636F6E6669672E6D6F7A
:100210006465203D20302E20577269746520646526
:100220006661756C742076616C75657320746F20DF
:10023000454550524F4D2E0A007267625F6D6174E2
:100240007269785F636F6E6669672E666C6167734B
:10025000203D2025640A007267625F6D61747269D7
:10026000785F636F6E6669672E7370656564203DA5
:100270002025640A007267625F6D61747269785F3D
:10028000636F6E6669672E6873762E76203D202533
:10029000640A007267625F6D61747269785F636F90
:1002A0006E6669672E6873762E73203D2025640A7A
:1002B000007267625F6D61747269785F636F6E660A
:1002C00069672E6873762E68203D2025640A0072C7
:1002D00067625F6D61747269785F636F6E6669678C
:1002E0002E6D6F6465203D2025640A007267625F91
:1002F0006D61747269785F636F6E6669672E656E93
:1003000061626C65203D2025640A007267625F6D42
:1003100061747269785F636F6E66696720454550E6
:10032000524F4D0A006565636F6E6669675F757051
:10033000646174655F7267625F6D61747269785F32
:1003400064656661756C740A0000010101010101B8
:10035000010101020202020202020202030303037C
:10036000030303030404040404040405050505054C
:10037000060606060607070707070808080809090A
:1003800009090A0A0A0B0B0B0C0C0C0D0D0D0E0EB5
:100390000E0F0F0F10101111111212131314141548
:1003A0001516161717181819191A1A1B1B1C1D1DBC
:1003B0001E1E1F2020212222232424252626272812
:1003C00029292A2B2C2D2D2E2F3031323233343542
:1003D000363738393A3B3C3D3E3F40414243444545
:1003E000464748494A4C4D4E4F5051535455565824
:1003F000595A5B5D5E5F616264656668696B6C6DCE
:100400006F7072737577787A7B7D7E808283858743
:10041000888A8C8E8F91939596989A9C9EA0A2A381
:10042000A5A7A9ABADAFB1B3B5B7BABCBEC0C2C486
:10043000C6C9CBCDCFD1D4D6D8DBDDDFE2E4E7E946
:10044000EBEEF0F3F5F8FAFDFF290A002575002F11
:10045000002575005D28002564002000256400202B
:100460000025640020002564007C002530325800FF
:100470006D6F7573656B6579205B62746E7C782037
:1004800079207620685D287265702F61636C293A47
:10049000205B000A002530325820006E6B726F5FBF
:1004A0007265706F72743A2025303258207C2000BB
:1004B0000A002530325820006B6579626F617264E2
:1004C0005F7265706F72743A2025303258207C203C
:1004D0000064656C5F6B65795F6269743A20636183
:1004E0006E27742064656C3A20253032580A00610A
:1004F00064645F6B65795F6269743A2063616E273B
:1005000074206164643A20253032580A0073757390
:1005100070656E64696E67206B6579626F61726485
:100520000D0A005B575D005B535D005B525D005B35
:10053000445D005B435D0020036300780074005F4E
:1005400000730074007500640069006F00200031C2
:1005500000320045003400000008034300580054F6
:100560000000000403090409027400040100A0FA59
:100570000904000001030101000921110100012209
:10058000440007058103080001090401000203007B
:100590000000092111010001222200070582032029
:1005A0000001070503032000010904020001030004
:1005B000000009211101000122B600070584032073
:1005C00000010904030001030000000921110100DA
:1005D0000122150007058503200001120100020019
:1005E000000008545701C40001010200010631FF58
:1005F0000974A1010975150026FF00952075088171
:1006000002C00660FF0961A1010962150026FF0012
:100610009520750881020963150026FF0095207555
:10062000089102C005010902A10185020901A1008A
:100630000509190129081500250195087501810290
:100640000501093009311581257F9502750881065C
:1006500009381581257F950175088106050C0A3832
:10066000021581257F950175088106C0C005010925
:1006700080A101850319012AB700150126B700954D
:100680000175108100C0050C0901A1018504190143
:100690002AA002150126A002950175108100C0054F
:1006A000010906A1018506050719E029E7150025BE
:1006B000019508750181020507190029EF1500252C
:1006C0000195F07501810205081901290595057547
:1006D000019102950175039101C005010906A1016F
:1006E000050719E029E71500250195087501810224
:1006F0009501750881010507190029FF150026FFDE
:1007000000950675088100050819012905150025C1
:1007100001950575019102950175039101C01124A0
:100720001FBECFEFDAE0DEBFCDBF04B603FE18C0B8
:100730008091010490910204A0910304B0910404FB
:100740008730904BA740B04B59F41092010410929F
:1007500002041092030410920404E0E0F8E3099507
:1007600012E0A0E0B1E0E8E8FAE602C005900D92E0
:10077000AE31B107D9F724E0AEE1B2E001C01D927D
:10078000A130B207E1F70E949C150C94DA3438CC02
:10079000FF93EF93E0911E02F0911F02309709F052
:1007A0000995EF91FF910895FC018591803011F03A
:1007B000EFDFFBCF0895FF27E0E230E247FF0CC0F8
:1007C000419597FF09C0EDE26095709580959095F1
:1007D000611D711D811D911D27FF02C0219530E310
:1007E00050E2AA27660F771F881F991FAA1FA41718
:1007F00010F0A41B63955A95A9F7AA3008F0A95FD9
:10080000A05DAF93F395611571058105910541F7E1
:10081000ED3211F4EF93F395F21718F43F93F3953B
:10082000FBCF8F91B5DFFA95E1F70895E991F99142
:100830008591803021F0853219F0AADFF9CF089533
:1008400020E0E89455915532C1F3503311F4689487
:1008500055915A3348F4505390F3220F022E220F31
:10086000220F200D250FF4CF0EF421958991999137
:10087000533619F3533729F1533559F1BC01882701
:100880009927E8945C3621F489919991689455915F
:10089000543639F446EF7EF077FF0DC08FEF9FEFAF
:1008A0000AC055374AE039F0583540E121F0523658
:1008B00042E009F00895FF93EF937DDFEF91FF9100
:1008C000B7CFFF93EF93FC0181918030B9F360DFE4
:1008D000FBCFFF93EF9368DFF1CFDF93CF93CDB7DB
:1008E000DEB72596A3DFCF91DF910895A0E2B0E0B7
:1008F000ECE7F4E00C94C333FC019E012D5F3F4F05
:100900008EE1D9011D928A95E9F78081833009F43F
:1009100052C040F48130C9F08230F1F1A096E2E09B
:100920000C94DF33803109F44AC08E37B9F78FE772
:10093000898381818A8381E08B838CE08C8360E270
:10094000CE0101960E94AF20E9CF81818C3030F733
:10095000228190E0DC01AA0FBB1FA80FB91FA35D85
:10096000BD4F2C932381A1818A2F90E0DC01AA0F37
:10097000BB1FA80FB91FA35DBD4F11962C932481F7
:10098000E1818E2F90E0FC01EE0FFF1FE80FF91FB1
:10099000E35DFD4F2283C2CFEDE2F2E084E2DF01AE
:1009A0001D928A95E9F7E1E2F2E08CE0DF011D9209
:1009B0008A95E9F7B3CF818180933801AFCFA181C8
:1009C000AC3008F0ABCFB0E0AF5DBD4F828163E0EB
:1009D0000E943C339C93A2CFB0E0A0E0E2EFF4E0B1
:1009E0000C94B9330E941D2BEC01B0E0A0E044E070
:1009F000B695A795979587954A95D1F79C0120784C
:100A00003327232B09F08095982E990C0DE212E0E4
:100A10008EE5A82E81E0B82E91E2E92E92E0F92E23
:100A2000CC27D170CC24CA94D12C3CE0832E8E0CE0
:100A300030913801D7018D917D01813079F182307B
:100A400089F1D501ED915D01D80112968C91389F05
:100A5000C0011124B6010E944833262FD8011196F7
:100A60008C91389FC0011124B6010E944833462F53
:100A7000D8018C91389FC0011124B6010E944833DF
:100A80008E2F90E00E9488190D5F1F4F8E10D0CFDF
:100A900081E0CDB7DEB7ECE00C94D533209789F632
:100AA00030E0CFCF399DC0011124B6010E944833F8
:100AB000362FC7CFA0E2B0E0E0E6F5E00C94C333F8
:100AC000FB018181880F880F9081890F98EF980F23
:100AD000923030F125818C3041F4222331F0909115
:100AE000200231E0932790932002FE0133969EE18D
:100AF000DF011D929A95E9F791E899838A832B8308
:100B000080915F0290916002DAD18C8360E2CE0125
:100B100001960E94AF2080E0A096E2E00C94DF33C3
:100B200081E0FACF823081F058F481111CC08091AD
:100B300020028823F9F08FE2611180E3FDD202C028
:100B4000833051F080E008958EEB90E0662311F041
:100B50008DEB90E0AAD0F6CF8CEB90E06623D1F33A
:100B60008BEB90E0F7CF8AEA90E0662399F389EA6D
:100B700090E0F0CF8DE298E0662361F38EE298E09A
:100B8000E9CFE42F811112C0643080F4443070F456
:100B900084E0689FB0011124E60FF72FF11DEE0FDE
:100BA000FF1FE455FF4F85919491089581E090E0F7
:100BB0000895E7CF08959C019A9581159F4150F5BE
:100BC000D901AA27B170F901EE27F270B9016627A1
:100BD0007470A9014427587034FF0EC080E1AB2B1C
:100BE00009F480E0EF2B09F08062672B09F0806444
:100BF000452B89F08068089581E0AB2B09F480E0F3
:100C0000EF2B09F08260672B09F08460452B19F007
:100C10008860089580E00895CF93DF93EB01CBDFE8
:100C2000FE010995DF91CF910895CF93DF93EC01F9
:100C3000805E9109089720F069EA7AE0209711F424
:100C400063EA78E0CE01E8DF8C2FEFD1DF91CF911E
:100C50000895CF93DF93EC012CD2CE01805E9109F1
:100C6000089720F06EEA7AE0209711F468EA78E0BD
:100C7000CE01D2DFDF91CF9108950F931F93CF93D1
:100C8000DF938C01EB01D1DF209739F4C801E1DF5C
:100C9000DF91CF911F910F9108958FE99FE0019708
:100CA000F1F700C000002197EFCF70E060E08933DA
:100CB000910511F460E570E0E0CF81E00895FDCF8B
:100CC0000895FBCF0895F9CF0895F4CE08950895BF
:100CD0000895FDCF089508950895A6E0B0E0E3E7F4
:100CE000F6E00C94C23349835A839E8330915602B6
:100CF00089819A81311117C03E81332389F02223E3
:100D000079F075D5182F682F89819A8150D569811E
:100D10007A81812F0E945A122696E3E00C94DE33EA
:100D200056D5182FF4CF63D569817A81F3CFFC01B2
:100D3000262F408151816281738184819581CDCF3D
:100D4000CF93DF93D82FC92F61E0F1DF6D2F7C2F78
:100D5000B6DF882359F061E08D2F9C2FE8DF6D2FDF
:100D60007C2FAFDF8170DF91CF91089580E0FACFC3
:100D70000F931F93CF93DF93D82FC92F60E0D7DF56
:100D80008C016D2F7C2FA4DF6D2F7C2FC801A1DF7C
:100D9000DF91CF911F910F9108950F931F93CF93E0
:100DA000DF93D82FC92F61E0C2DF8C016D2F7C2F1C
:100DB0008ADF811106C080E0DF91CF911F910F91F2
:100DC00008956D2F7C2FC80180DF8823A1F36D2F3C
:100DD0007C2FC8010E94E326882369F36D2F7C2FA6
:100DE000C8010E94A522882331F36D2F7C2FC801F2
:100DF0000E947D228823F9F26D2F7C2FC8010E946A
:100E0000B6158823C1F26D2F7C2FC8010E940716EA
:100E1000882389F26D2F7C2FC8010E945A138823E2
:100E200051F26D2F7C2FC8010E946C13882319F298
:100E30006D2F7C2FC8010E948513BECF21E030E0CA
:100E4000A90102C0440F551F8A95E2F7CA01E7C302
:100E5000CF93C82F81E090E00C2E02C0880F991F1D
:100E60000A94E2F70E9431108C2FE8DFCF910895A9
:100E700081E00895FDCF0895FBCF0895CF93C82F4B
:100E800083D38C2FF7DF8C2FF7DFCF91089581E08C
:100E9000F5DF0C946A2B80E0F1DF0C948E2B1BDFC6
:100EA0000E94432A0E946E1D55D081E00C94171FAA
:100EB00053D080E00E94171F0FDF0C94472A9C013B
:100EC000892F99270097E9F09C0188E0A90174E037
:100ED000569547957A95E1F74115510511F08C5FCC
:100EE0009A01A90156954795569547954115510583
:100EF00011F08E5F9A0136952795232B09F08F5FAD
:100F0000089580E0E3CF829594E0899F90011124B9
:100F10002C7C869586958373282B30E0C901880F39
:100F2000991F8A7A359527952575822B089581E03A
:100F300008950895CF93DF93D82FF9DFC82F882322
:100F400011F08D2FF6DF8C2FDF91CF91089508954A
:100F5000F1CF089580E0FCCF0E943327F9CFCF93E3
:100F60000E943327C82F809151028C17F1F0C09353
:100F700051020E94292B6093520270935302809376
:100F8000540290935502809107038570853059F47F
:100F90001F92CF938CEC90E09F938F939EDC0F90E9
:100FA0000F900F900F908C2FD3DFCF910895ADE06D
:100FB000B0E0EDEDF7E00C94C333488759876A87BA
:100FC0007B878C879D87911121D71F8286E0FE0148
:100FD0003896DE01119601900D928A95E1F78D8188
:100FE00081110CC029813A814B815C816D817E81A8
:100FF0008F8159D62D96E2E00C94DF33CE01019615
:101000009FDE8111EFCFF6CFFC018481813019F48E
:10101000808191811DC40895662321F00E940224DD
:101020000C94CD240E945424FBCFCF93C82F882347
:1010300089F08CEF8C0F813A78F48C2F0E947A28FB
:10104000882321F08C2F0E943F296BD78C2F0E9480
:10105000282967D7CF91089580E28C0F883040F41B
:10106000C77081E001C0880FCA95EAF7B0D6F1CF0A
:101070008BE58C0F833038F42C2F2452330BC901AD
:101080000E94FC27E7CFE8E5EC0FEB3150F4F0E0ED
:10109000EE0FFF1FE659FE4F808191810E942428A8
:1010A000D9CF83E38C0F8331A8F661E08C2FB4DFB6
:1010B000D1CF882351F19CEF980F913A18F40E94F8
:1010C0003F292FC790E2980F983048F4877091E03D
:1010D00001C0990F8A95EAF7892F7FD6F2CF9BE559
:1010E000980F933020F490E080E00C94FC2798E572
:1010F000980F9B3120F490E080E00C94242893E337
:10110000980F933110F460E087CF08951F93CF9329
:10111000DF93182FEB0189DF209731F4812FC9DF8E
:10112000DF91CF911F9108958FE99FE00197F1F72B
:1011300000C000002197F0CF70E060E0893311F427
:1011400060E570E0E3CF882311F041D6EAC6089548
:10115000882311F042D6E5C60895B0E0A0E0E3EBA5
:10116000F8E00C94BB336C01D62FC72FFC0115811E
:10117000068102950F7021D6E82E8823E9F0E12E32
:101180001123D1F08C2F807F803461F080E28D0FAD
:101190008830F0F08C2F807E803221F4D230C0F085
:1011A0000023B1F080918E0382FF12C082E0DDD671
:1011B00004D691E0E82EE9268C2F82958F70A82E18
:1011C000B12C8C3078F5F501E452FB4C0C94AD3326
:1011D000E12CF2CF0C2F0F70C07F11F00295007F31
:1011E000112381F0002349F080E28D0F883010F048
:1011F000D11105C0802FEBD594D68D2F42C0802F02
:10120000F7D5FACF8D2F55DF002361F080E28D0FE7
:10121000883010F0D11103C0802FDFD502C0802F9D
:10122000EDD57FD688E0A81AB10894E0A916B104DC
:1012300008F04EC10E9433278BDECDB7DEB7EAE05F
:101240000C94D733FC2FFF70FF2EC07FC03219F0F3
:10125000F29480EFF822DD2341F0D13081F11123A7
:1012600009F439C00023C9F0C8CF80918E0382FDF4
:1012700010C0112341F0FF2019F08F2DA8D551D6B1
:1012800080E0D3DECFCF80E014DFFF2059F28F2D36
:10129000C4CF112359F0011103C08F2D54DFC2CFE9
:1012A000013009F0BFCF8F2DC5D5BCCF0111BACF0A
:1012B0008F2D4EDF8F2DC9D58F2DAED5B3CF1123F6
:1012C00021F0063008F0AECFE8CF053008F0AACF05
:1012D0008F2D3EDFA7CF0023D9F3D93349F42FEF69
:1012E00087EE93E0215080409040E1F700C000007D
:1012F0008D2FDFDE97CF8C2F86958695837069F0D2
:10130000813009F08FCF8D2F9C2F9370111102C067
:1013100080E090E00E94242885CF8D2F9C2F937031
:10132000111102C080E090E00E94FC277BCF612F6A
:101330008D2F72DE77CF8C2F837089F5111172CFCC
:101340004D2F429546954770440F440F2D2F2F7017
:1013500030E0042E02C0220F331F0A94E2F790E01F
:1013600080E0D4FF09C08FE090E002C0880F991F91
:101370004A95E2F780959095C695C695C370822BE5
:10138000932BC23041F0C33041F0C13011F050D145
:1013900049CF47D147CF53D145CF41D143CF869590
:1013A000112311F08C2F8170882309F43BCF4D2F2E
:1013B000429546954770440F440F2D2F2F7030E013
:1013C000042E02C0220F331F0A94E2F790E080E05F
:1013D000D4FF09C08FE090E002C0880F991F4A95A2
:1013E000E2F780959095C695C695C370822B932B96
:1013F000C23041F0C33041F0C13011F074D112CF8E
:101400006BD110CF77D10ECF27D10CCFCF70112356
:1014100021F08C2F35D18D2F41CF8D2F99DE8C2F40
:101420003DD100CFD23F39F160F4D03FB9F0D13F88
:1014300081F0112309F43CC00111DFCE8C2F8F7194
:101440001EC0D33FF1F0D43FA1F780918E0382FDFF
:1014500020C08C2F8F71112319F311C0112339F083
:10146000053008F0DFCE8C2F8F7128D1DBCE06300F
:1014700008F0D8CEF8CF8C2F8F711111D1CF00D1B9
:10148000D1CE112321F08C2F8F71F0D0CBCEEBD0A9
:10149000C9CE112329F063E08C2F8F714FD5C2CEB6
:1014A00081E063D5023008F4BDCE82E05ED5BACECD
:1014B000002359F0D93309F01BCFEFEFF7EE23E00B
:1014C000E150F0402040E1F711CF8C2F8F71A8CF71
:1014D000EE2009F4B2CE6DD480FDAFCEF6011582B8
:1014E00062D4CED0C60117D05ED4D8D0A6CE0F938A
:1014F0001F93CF93DF93EC01688179818D81B3D104
:101500008C01FFD08BD0B801CE0127DEDF91CF91C7
:101510001F910F910895CF93DF93EC018C81882365
:1015200081F0CE013ADC81110FC047D4882349F005
:101530008D81882331F080918E0382FF02C082E08A
:1015400014D5DF91CF910895CE01D1DFCE0110DC0B
:10155000F8CF882311F04CD4E4C40895882311F007
:101560004DD4DFC4089590E080E00E94FC2790E015
:1015700080E00E9424284AD4D4D40E947F250C9471
:10158000CD240E945629EFCF30D4FBCF282F92953F
:101590009F70963091F060F4925F9F70923030F4BB
:1015A00081E0203F81F030F4283E30F080E0089563
:1015B0009A5FF3CF243FD1F7089581E0283EE0F30E
:1015C000213FA1F7F9CF0895FC018481882321F000
:1015D000808191813DD1DACF80E00895A6E0B0E02E
:1015E000E4EFFAE00C94C3332696E2E00C94DF3388
:1015F000A7E0B0E0EEEFFAE00C94C3332796E2E008
:101600000C94DF330895FECF0895FDCF0895FADFDF
:10161000FCDF909362028093610208950895F7CFF2
:1016200008952091610230916202822B932BEFCFBB
:10163000209161023091620282239323E8CF2091AE
:1016400061023091620282279327E1CFDBCF0895B8
:10165000FDCF0895D7CF0895FDDFFADF90936002A4
:1016600080935F02089590E080E0F6CF21E030E0C3
:10167000A90102C0440F551F8A95E2F7CA01ECCFB9
:1016800021E030E002C0220F331F8A95E2F78091FB
:101690005F0290916002822B932BDECF21E030E03D
:1016A00002C0220F331F8A95E2F720953095809172
:1016B0005F029091600282239323CECF21E030E03D
:1016C00002C0220F331F8A95E2F780915F0290914A
:1016D000600282279327C0CF20915F023091600281
:1016E000822B932BB9CF20915F023091600282232D
:1016F0009323B2CF20915F0230916002822793271B
:10170000ABCF08959B01677091E001C0990F6A9576
:10171000EAF763E0369527956A95E1F7220F331FC4
:10172000220F331FFA01E20FF31F50E040E0682F51
:1017300070E08191DF0111979B01042E02C0369564
:1017400027950A94E2F72170219528272923282735
:101750002C934F5F5F4F4430510559F708959C011A
:10176000982F977083E0369527958A95E1F7220F99
:10177000331F220F331FFB01E20FF31F50E040E045
:1017800080E0219130E0092E02C0369527950A9419
:10179000E2F721703327042E01C0220F0A94EAF7E2
:1017A000822B4F5F5F4F4430510559F70895282F22
:1017B000862F943058F4243048F434E0939FB001DD
:1017C0001124620F711D47E552E09CCF08959430BB
:1017D00060F4843050F444E0949F9001112467E554
:1017E00072E0820F932F911DBACF80E00895B0E090
:1017F000A0E0EDEFFBE00C94BC338C01E0905F02C5
:10180000F09060028091610290916202E82AF92AC8
:10181000CFE0D0E0CC24C394D12CBC2EC6010C2E3A
:1018200002C0880F991F0A94E2F78E219F21892B0D
:1018300049F4219790F7B12C8B2DCDB7DEB7E9E0B5
:101840000C94D833B8018C2F40D6019791F3F4CF84
:10185000CF93DF93D82FC92FCADF6D2F7C2F35D6BA
:10186000DF91CF9108951F93CF93DF93162FD72F3A
:1018700090915602992339F0862F972FE9DFDF9157
:10188000CF911F910895882369F0862F972FAFDF9E
:10189000C82F682F812F9D2F8ADF612F7D2F8C2FDE
:1018A00014D6EDCF862F972F92DFC82FF6CF1F9338
:1018B000CF93DF93E091630217E0809164028E136F
:1018C00004C0DF91CF911F910895CE2FD0E01E9FCD
:1018D000F0011124EB59FD4F208131814281538168
:1018E00064817581868184DEFE013196E770E5CFE3
:1018F00020919D0230919E0240919F025091A00242
:101900006091A1027091A2028091A30271CECF9347
:10191000DF938091A302807F09F04BC08091A202E7
:10192000882309F446C0E091630250916402C0919B
:101930009E02D0919D0260919F027091A00247E0AB
:101940005E17B9F18E2F90E0E49FF0011124EB595E
:10195000FD4F2481222381F1489FF001499FF00D22
:101960001124DF01AB59BD4F11962C9111972C1307
:1019700023C02C912D1320C015962C911597211161
:101980001BC012962D913C91261B370B283C31052C
:1019900098F48091A3028F7080618093A302E5592F
:1019A000FD4F80818F70806180838DE992E0B3DD8F
:1019B0007EDFDF91CF910895FC013196E770C0CFB3
:1019C000982FE09163024091640257E0E41302C053
:1019D00080E008952E2F30E05E9FF0011124EB5936
:1019E000FD4F8181681306C08081981303C08581F3
:1019F0008111EFCFF9013196E770E8CFADE0B0E0AB
:101A0000E4E0FDE00C94B9338C0186E0F801DE01DE
:101A1000189601900D928A95E1F7F8018481E5808E
:101A20009DE9A92E92E0B92E9091A10291111AC0C0
:101A30008823A9F0EE2089F0C801C6DDF82E88239E
:101A400061F087E0F801D50101900D928A95E1F7E8
:101A5000C501DADA5CDF4CDF59C0C8015CDDFF2468
:101A6000F39454C0C080D18082809380F090A20211
:101A700020919F023091A002A401421B530BFF2032
:101A800009F4CCC0483C510508F09CC0882309F4F7
:101A90003DC090919E028091A302282F207F09F0E3
:101AA00056C0D91214C090919D02C91210C0E11005
:101AB00048C08F7080618093A3021ADF8DE992E0A5
:101AC0002ADD8091A302F8018683F12C1FC0E1106A
:101AD00038C06D2D8C2D74DF6D2D8C2D71DFE82EAF
:101AE0008111F3CFC886D98688859985B1DE292FE3
:101AF00022952F70903478F49F702230A0F09923B3
:101B0000B1F0F8019681907F91F4FE2C8F2D2D96E7
:101B1000ECE00C94D5332A5F2F70223060F0C801BE
:101B2000FADCEF2CF2CF992311F0882371F3805E59
:101B3000883058F3F4CF803F40F3815F833028F33F
:101B4000EECF8091A30281608093A302BECFD91211
:101B500012C090919D02C9120EC0E1100CC0868384
:101B6000C801D9DC87E0F801ADE9B2E001900D923F
:101B70008A95E1F770CFC80127DD882309F46DCF7E
:101B8000EE2009F46ACF8091A302803280F0209188
:101B90009D0230919E023A8329839C828B82909190
:101BA000A1029D831E828F83CE010196B4DC87E063
:101BB000F801ADE9B2E001900D928A95E1F7A7DE58
:101BC00097DE4DCF9091A302292F207F89F4682DB5
:101BD0009B868A86A6017B859E2D00DD8DE992E09D
:101BE0009ADC87E0F50111928A95E9F781DE6DCFE5
:101BF000882309F48BCF80919E028D11BCCF8091F8
:101C00009D02C812B8CFE110B6CF9683C80183DC1D
:101C100087E0F50111928A95E9F778CF483C5105A4
:101C2000A8F5882309F41BCFFE2CEE2009F415CF6C
:101C300080919E028D111EC080919D02C8121AC013
:101C40008091A30280FD0DC0982F907F51F0868374
:101C5000903F09F485CF982F907F905F8F70892BEC
:101C60007ECF87E0F801ADE9B2E001900D928A9550
:101C7000E1F74CCFC801A8DC811199CF8091A30274
:101C800081608093A302C80146DC40CF682D9B860B
:101C90008A86A6017B859E2DA1DC87E0F501119245
:101CA0008A95E9F7D8CEAEE0B0E0E9E5FEE00C9425
:101CB000C233288739874A875B876C877D878E8701
:101CC000CE0108969BDE8823A9F06C85662339F047
:101CD000288539854A855B857D858E8589DC17E079
:101CE000809163029091640289133CC02E96E3E0D8
:101CF0000C94DE3387E0FE013896DE0111960190E8
:101D00000D928A95E1F74C85442349F320916402B2
:101D100030E0C901019687709927509163025817E6
:101D2000190699F04D8397E0929FD001939FB00DD3
:101D30001124AB59BD4FFE01319601900D929A9539
:101D4000E1F780936402B3DDCACF1EDC1092640217
:101D50001092630287E0EDE9F2E0DF011D928A95BF
:101D6000E9F7BDCF819FC00111248B599D4F46DEFD
:101D7000882309F4BBCFE09163021E9FF001112478
:101D8000EB59FD4F208131814281538164817581FE
:101D900086812EDC8091630290E0019687709927FE
:101DA000809363029DCF8091CC028695869586951F
:101DB00008958091CC02877008959091CC0297701D
:101DC00081E009F480E008958091F80208959091EF
:101DD000F802982B9093F8020895982F909580918F
:101DE000F80289238093F80208951092F80208956A
:101DF0009091F702982B9093F7020895982F909561
:101E00008091F70289238093F70208951092F702D8
:101E100008950895FECF08959091CD02292F28238B
:101E200029F0809589238093CD02F4CF08950895F9
:101E3000FECF08959091CE02292F2823281721F054
:101E4000982B9093CE02F4CF08959091CE02292F33
:101E5000282329F0809589238093CE02E9CF089525
:101E60008091CE02882321F01092CE0280E0E0CF54
:101E70000895CF93C091F8028091F702C82B80910A
:101E8000CE02882329F0C82B0E9459288111E8DF4F
:101E90008C2FCF910895CF93DF93C0913B01D091C8
:101EA0003C01E7DF8883C0913B01D0913C0148E0D1
:101EB00050E064EC72E0CE010E945B34892B59F053
:101EC00088E0FE01A4ECB2E001900D928A95E1F762
:101ED000CE010E944227DF91CF910895CF93DF93E7
:101EE000C0913901D0913A01C4DF8983C091390191
:101EF000D0913A0140E250E064EA72E0CE010E94E3
:101F00005B34892B59F080E2FE01A4EAB2E0019033
:101F10000D928A95E1F7CE010E949227DF91CF9131
:101F200008950E942C27882329F080918D0387FF34
:101F300001C0D4CFB0CF0895FECF089590918E0305
:101F400092FF0EC098E0899F90011124622B60934C
:101F5000CC0296DB8091CC02869586958695ECCF57
:101F60008FCB1092CC0280E0E7CF9091CC0280958D
:101F700089238093CC02282F277059F4891749F0C0
:101F800090918E0392FF05C086958695869586DB97
:101F9000E8CF0895CF93C82F80918E0382FB9927B5
:101FA00090F99C17C9F0C0FB82F980938E038DE8ED
:101FB00093E05BD082E0D9DF8091070380FF0CC003
:101FC0001F92CF938CED90E09F938F930E946D04AE
:101FD0000F900F900F900F90CF91089580918E03E6
:101FE00082FB882780F991E08927D4CF81E0D2CF86
:101FF00080E0D0CF60E070E0CB0116C460E070E01C
:10200000CB010CD4F7CFA3E0B0E0E9E0F0E10C9411
:10201000C333B1D3BCD31B82CE010396CFD381E0AF
:1020200090E09093620280936102D4D31A82198265
:102030008A8184618A83CE010196DDD30E94AB1828
:10204000DDDF0E94A4182396E2E00C94DF33DBCF9F
:102050000895A3C3089590C30895A5C30895B4C374
:102060000895B8C30895BBC30895C5C30895CAC3EE
:102070000895CEC30895DEC30895A6E0B0E0E3E47A
:10208000F0E10C94C1330E941D2B8C018091F90268
:102090009091FA028017910781F019821A820E94AA
:1020A0001D2B682F49815A81792F80E090E00E9492
:1020B000D7071093FA020093F9022696E4E00C94F5
:1020C000DD330E94292B60930303709304038093F4
:1020D0000503909306036093FF02709300038093BF
:1020E00001039093020308950E94292B6093030338
:1020F0007093040380930503909306036093FB029F
:102100007093FC028093FD029093FE02089508955F
:102110000895FDCF08950895FEDFFBCF0895FECF0B
:1021200008950895FEDFFBCF81E79DE21AD5F0DF29
:10213000F3CF81E00895FDCF0895FBCF0895089572
:1021400008950895FCDFFCDFFCCF85DF811101C01D
:102150007EDF87E093E081DF8DE893E084DF0E94FB
:102160007B227DDF5CDA80915F029091600270CA11
:102170000E94142B0E94B4204ED4E7DF0E942A272D
:102180000E94A7070E94B11ECDCF1F93CF93DF936C
:10219000C82FD62F142F0E94651A412F6D2F8C2F18
:1021A0000E947D2ADF91CF911F910895A6E0B0E0B3
:1021B000ECEDF0E10C94BA33BEDF811111C05DDFAC
:1021C0000E942B270E946E1D0E94322181118CDFFC
:1021D0000E94A0250E94AF072696EBE00C94D63310
:1021E0002BD489E8C82E83E0D82E760110E0F701C1
:1021F00001917F01812F29D31F5F143009F446C05C
:102200000817A9F38091070381FD25D396DF982E47
:1022100010E0812F1AD3082FF60191916F018917D1
:1022200081F1A82EA926F12CEE24E3948A2D8E218B
:1022300001F1BB24B394902F9E2109F4B12C992075
:10224000A1F06F2D812F0E94692A81110EC0F982A1
:102250001A830E941D2B682F8B839C8349815A818E
:10226000792F81E09B2D0E94D7074B2D6F2D812F59
:102270008CDFF394EE0CF4E0FF12D8CFF601319727
:1022800000831F5F143029F61CDF9ACF0813BACFE2
:1022900096CF1F93CF93DF931AD1EC01811592450E
:1022A00008F05CC0C11580E5D80708F0D9C0C03E71
:1022B000D10538F5CD3CD10508F0ABC0C83AD10501
:1022C00080F4C53AD10508F0A1C0C130D10509F4A8
:1022D00040C0CE010497813A9105D8F1D0E0C0E02A
:1022E00038C0CE01885A91094B97C0F7C85AD0E040
:1022F000CC0FDD1FC056DE4F0990D881C02DD464AD
:1023000028C0C11590E4D907E0F4C11520E2D20736
:1023100008F0C0C0C83ED105E0F0CE019A95811505
:102320009F41E0F68D2F75D1182FCE019927CFD080
:10233000C12FD0E0DC2FCC27CC27DF71C82BD92BC5
:1023400008C0CE019927C3D0CC27DF70C82BD92B6A
:10235000D06ACE01DF91CF911F910895C03882E5F8
:10236000D807B8F5C03692E5D90708F05BC0C0348D
:1023700022E5D207C8F4C03282E5D80708F04BC086
:102380002C2F2695269590E2299F900111248C2FC1
:102390008370C1E0D0E002C0CC0FDD1F8A95E2F768
:1023A000C22BD32BDD68D5CF2C2F269526952770F1
:1023B00080E2289F900111248C2F8370C1E0D0E02F
:1023C00002C0CC0FDD1F8A95E2F7C22BD32BDC684D
:1023D000C0CFC03C92E5D90760F48C2F8F71C03A12
:1023E000D245A8F5C82FD0E0DC2FCC27C46FD06A27
:1023F000B0CFCE01805C9245809708F06FCFDC2F84
:10240000CC27CC27DF71C06FD06AA3CFA497D0644C
:10241000A0CFD0659ECFCF71D0E0DC2FCC27C16F8D
:10242000D06A97CF2C2F26952695277080E2289F7B
:10243000900111248C2F8370C1E0D0E002C0CC0F3A
:10244000DD1F8A95E2F7C22BD32BDA6882CFE1D069
:10245000C82FD0E0DC2FCC27CC27DF71D06279CF1A
:102460008C2F8F71D6D055E0D695C7955A95E1F748
:10247000CF70D0E0DC2FCC27282F30E084FF06C0BF
:1024800044E0220F331F4A95E1F73327C22BD32BA9
:10249000D0695FCF8D2F8F71BCD0182FCE019927B7
:1024A00016D0C12FD0E0DC2FCC27CC27DF71C82B72
:1024B000D92BD4CF462F672F743020F4443010F43A
:1024C0000C94D90580E090E00895F4DFE2CE803EE0
:1024D0009105C1F1C8F48133910509F47DC048F438
:1024E0008932910509F46DC08A32910509F47BC0E7
:1024F000089589339105D1F082389105B9F085337B
:10250000910509F459C00895843E9105C1F138F44C
:10251000823E910521F1833E910531F10895863E79
:102520009105C1F1873E9105E1F1089520918D0358
:10253000237009F065C020918E0323FF14C089E247
:1025400090E0089520918D0320FD43C030918E03CB
:1025500030FF09C024FF4EC090E080E00895209134
:102560008D0322FDF7CF089520918D0322FD45C0F4
:1025700030918E0330FD44C024FFF5CFEDCF209184
:102580008E0321FFF0CF80918D0384FDE5CF87EE90
:1025900090E0089520918D0323FFE5CF24FDDCCF4B
:1025A000F6CF20918D0323FD2EC030918E0331FF95
:1025B000E3CF84EE90E0089520918D0325FFD3CFE3
:1025C000BECF20918D0325FD21C020918E0323FFD6
:1025D000CACF89E390E0C7CF20918D0326FFC3CFF8
:1025E0008AE290E0089520918D0326FFBCCF81E31D
:1025F00090E0089583EE90E0089582EE90E00895D3
:1026000080EE90E0089586EE90E0089585E390E0F6
:10261000089590918D0392FF10C041E0282F2471FE
:10262000243009F040E031E0282F2871283009F0EB
:1026300030E0431711F02CE0822793FF10C041E0F7
:10264000282F2471243109F040E031E0282F28712F
:10265000283109F030E0431711F02CE08227309147
:102660008E0330FF10C051E0282F2171213009F076
:1026700050E041E0282F2871283009F040E054173D
:1026800011F029E0822731FF10C041E0282F21718D
:10269000213109F040E031E0282F2871283109F07C
:1026A00030E0431711F029E0822794FF02C083FD38
:1026B000877E0895CF939C01FB01805E9245C1E027
:1026C000809738F4C581C11104C0822F8F710E9498
:1026D00028078C2FCF9108959C01FB0185818823C9
:1026E00091F02B35FCE73F0761F02C359CE739076B
:1026F00029F02A353C4741F479DC01C06FDC80E0E9
:10270000089576DCFCCF81E008959C01FB01858172
:10271000882379F12230FCE73F0789F040F4211546
:10272000ECE73E0741F021303C4701F108952330AA
:102730003C47D9F008950E94470780E008959091A2
:102740000703892F8E7F90FF81608093070380FFAE
:1027500009C083E091E09F938F930E946D040F90D6
:102760000F90EBCF81EF90E0F6CF73DC0E944B0728
:10277000E4CF81E00895089590E080E00E948934DC
:102780009C0181E0233E3E4F09F080E0089563EE16
:102790007EEF90E080E00C94B7346FEF7FEF90E035
:1027A00080E00C94B734CF93DF93EC0182E090E0AB
:1027B0000E9481348883DF91CF910895FC0160816C
:1027C00082E090E00C949D3483E090E00E9481349C
:1027D00090E00895682F83E090E00C949D34CF93AF
:1027E000DF93EC0184E090E00E9489349983888330
:1027F000DF91CF910895FC016081718184E090E0C8
:102800000C94B73448E050E067E170E00C94713408
:1028100048E050E067E170E00C948E34AB01BC01FD
:102820008FE090E00C94AF34AB01BC0183E190E009
:102830000C94AF34682F8EE090E00C949D34089592
:10284000FECF08950895FECF0895E82FF0E0ED56ED
:10285000FC4F80810895B0E0A0E0E1E3F4E10C9446
:10286000B93383E291E09F938F930E946D0483E9D3
:10287000E82E83E0F82E0F900F90912C812C9EE192
:10288000A92E91E0B92E2BE1C22E21E0D22E06E135
:1028900011E0C4E1D1E09F928F92BF92AF920E946B
:1028A0006D04DF92CF920E946D04F70181917F0148
:1028B0000E9483071F928F931F930F930E946D04B2
:1028C000DF93CF930E946D049FEF891A990AEDB7A9
:1028D000FEB73C960FB6F894FEBF0FBEEDBFF4E016
:1028E0008F169104C1F6CDB7DEB7ECE00C94D5336A
:1028F00080EA8A95F1F7089500C00895F9CF089508
:10290000F894E82FE295EF70F0E041A18F7021E09C
:1029100030E0B90102C0660F771F8A95E2F7CB015C
:10292000962F9095942391A392A1892B82A37894BA
:10293000089584E9E5DF87E9E3DF84E3E1DF85E308
:10294000DFDF87E6DDDF86E6DBDF86E9D9DF84EFE0
:10295000D7CFB0E0A0E0EFEAF4E10C94BD337C0106
:10296000162F042FC62FD0E0CA52DE4F48814F3FAA
:1029700009F448C0F894E42FE295EF70F0E081A1EB
:102980004F7021E030E001C0220F4A95EAF7822B18
:1029900081A382A12095282322A37894ADDF8AED1C
:1029A000C82E81E0D82EF701A7014C5F5F4FF12CB4
:1029B000E02EE094D6019D916D0181919F012150FF
:1029C00031099F3F21F1692F62956F7070E0DB0143
:1029D00090966C9170E09F7002C0759567959A957E
:1029E000E2F760FD14C0802BD9018C93FF24F3948F
:1029F000E417F507F9F688818F3F09F081DF6F2D25
:102A0000812F7CDFCDB7DEB7E8E00C94D9338E217F
:102A1000D9018C93EDCF8DDF84E0E3E9F3E0DF01B2
:102A2000982F1D929A95E9F7EFE8F3E0DF011D92E8
:102A30008A95E9F73ED004CFA4E0B0E0E2E2F5E108
:102A40000C94C1331A8219821C821B8210E001E0AF
:102A5000402F612FCE0101967CDF1F5F000F1430E5
:102A6000B9F744E050E0BE016F5F7F4F8FE893E01D
:102A70000E945B349C0141E0892B09F440E0232B48
:102A800061F089819A81AB81BC8180938F0390939F
:102A90009003A0939103B093920363E973E08FE8EE
:102AA00093E008D0182FCFDE812F2496E4E00C9419
:102AB000DD330895EF92FF920F931F93CF93DF932F
:102AC000F82E092F162FD72FC42F442379F081E039
:102AD00080930A030E941D2B90930903809308039F
:102AE00080E0CDB7DEB7E6E00C94DB33E0900A037C
:102AF000EE20B1F380910803909109030E948E2A81
:102B0000059770F344E050E06F2D702F812F9D2FBB
:102B10000E945B34892B51F084E0EF2DF02FA12F20
:102B2000BD2F01900D928A95E1F7CE2D10920A03E8
:102B30008C2FD7CF3BCB08950E94B72A0E94D32D6C
:102B4000F3DA0E94EB2D14DB0E94F42D0E94F72D86
:102B5000F1DF0E94192E0E94EB2B0E94172CF2DA53
:102B6000F5CF90931F0280931E0208950F931F9339
:102B7000CF938C01FB01C581CC2309F446C024D935
:102B80008272F801E052F847EB30F10538F4E85171
:102B9000FB4C0C94AD330E94431FC0E08C2FCF91AF
:102BA0001F910F910895882329F00E94B21FF5CF3D
:102BB0008823D9F30E94A51FF0CF882329F00E9413
:102BC000FF1FEBCF8823D9F30E94F41FE6CF8823A1
:102BD00029F00E941B20E1CF8823D9F30E940D2009
:102BE000DCCF882329F00E943720D7CF8823D9F360
:102BF0000E942920D2CF882329F00E947220CDCFB5
:102C00008823D9F30E946720C8CFC1E0C7CF1F93A4
:102C1000CF93DF93EC01FB01158111110FC0D4D8C4
:102C20008272FE01E054F847EF30F10508F04DC024
:102C3000ED50FB4C0C94AD330E94521F812FDF915D
:102C4000CF911F9108950E94611FF8CF0E94431FEA
:102C5000F5CF882329F00E94B21FF0CF8823D9F343
:102C60000E94A51FEBCF882329F00E94FF1FE6CF0B
:102C70008823D9F30E94F41FE1CF882329F00E9412
:102C80001B20DCCF8823D9F30E940D20D7CF8823C7
:102C900029F00E943720D2CF8823D9F30E9429201F
:102CA000CDCF882329F00E947220C8CF8823D9F382
:102CB0000E946720C3CF882329F00E94AD20BECF99
:102CC0008823D9F30E94AB20B9CF11E0B7CFB0E091
:102CD000A0E0EDE6F6E10C94BB33D62FC72F982F7A
:102CE00071110FC0442329F0E82FF0E0E75BFC4F9F
:102CF0009491692F792F892FCDB7DEB7EAE00C9434
:102D0000D733272F30E0E82FF0E0442321F0E75BB2
:102D1000FC4FE491F0E066E0D69F80011124EE24A0
:102D2000EA94F12CC801B7010E944833AB018D2F02
:102D300090E0880F991FA5E5A49FB001A59F700D95
:102D40001124861B970B682F660F680FC701821B23
:102D5000930B8E9FD0018F9FB00D9E9FB00D1124BD
:102D60007B2F6C9FE0011124CD2FDD27C7018C1B29
:102D70009D0B8E9FE0018F9FD00D9E9FD00D112443
:102D80008D2F5701A61AB108A29E6001A39ED00CF8
:102D9000B29ED00C1124CD2CDD24EC18FD08EE9E43
:102DA0009001EF9E300DFE9E300D11249E2F43307A
:102DB0005105C1F00C3F63E0160760F44130510546
:102DC000A9F042305105B1F00F3F110548F48B2FA7
:102DD000732F06C04430510581F046305105B9F3D8
:102DE000692F8ACF9B2F7D2F8E2FFACF9D2F8B2F70
:102DF0007E2FF6CF832F9B2FFBCF8E2F932FF0CFDD
:102E000041E065CF9C0190E080E0269F020E811D8D
:102E1000369F800D911D1124830F911D08959C01F3
:102E20008230910508F408959FEF213E8EE1380726
:102E300040F4C90145E0969587954A95E1F798E0F9
:102E4000980F61E0E62FE90FFF27FF1FAF015595AF
:102E50004795842F449FF001459FF00DF00D1124FC
:102E60002E173F0738F49FEF940F961758F78FEF00
:102E7000860F08954F3FE9F361E0640FF6CFEF92BC
:102E8000FF920F93282FC70135E0039F800D911DFE
:102E900011248F3F910519F010F08FEF90E080958D
:102EA000382F230F08F42FEF822F0F91FF90EF9010
:102EB0000895EF92FF920F931F93E00EF11C89018A
:102EC00037FF03C011950195110924E0000F111F70
:102ED0002A95E1F70F3F110519F014F00FEF10E0FC
:102EE0009A0157FF03C031952195310994E0220FD3
:102EF000331F9A95E1F7201731070CF489010E0D65
:102F00001F1D0F3F110519F010F00FEF10E0009595
:102F1000282F200F08F42FEF822F1F910F91FF9081
:102F2000EF900895EF92FF920F93972FFA01B90156
:102F30009701093430F4201B31092F3F310519F076
:102F400010F02FEF30E03896719740F0AB01485FFA
:102F50005F4F4131510510F02FEF30E02095382FB1
:102F6000320F08F43FEF77FF02C06D5F7F4F75951A
:102F700067957595679580919803680F792F832FD2
:102F80000F91FF90EF900895EF92FF920F93282FEB
:102F9000C701801B91098F3F910519F010F08FEF49
:102FA00090E0382F3095230F08F42FEF680F822F11
:102FB0000F91FF90EF900895EF92FF920F93282FBB
:102FC000C701801B91098F3F910519F010F08FEF19
:102FD00090E08095382F230F08F42FEF822F0F9168
:102FE000FF90EF90089590910D03982B90930D030F
:102FF00008951F93182F9A014F3F510519F010F0B3
:103000002FEF30E02095219F020E20E0211D11249A
:10301000822F1F9108959A014F3F510519F010F02A
:103020002FEF30E0209530E4239F020E20E0211D99
:103030001124620F0895E4CE0895B0E0A0E0E3E229
:10304000F8E10C94B633782E662E862F90E024E0BB
:10305000729E80011124F801EC5FFE4FE80FF91F0A
:10306000C081CF3FA1F1B12CA12C812CD0E09E01D9
:10307000220F331FA9014C5E5E4F6A01E901CB5E4E
:10308000DE4F045C1C4F080F191F7501912C89E05D
:10309000582EF701EC5FFE4F20812F3F59F078103A
:1030A0001BC0691019C0F801208130E2230F08F419
:1030B0002FEF208393947FEFE71AF70A84E09812AA
:1030C000E8CF8394E4E0AE0EB11C8812DECFCDB71A
:1030D000DEB7EFE00C94D23330E0F6014081F90125
:1030E000EE0FFF1FEC5EFE4F8081481B550B888161
:1030F000220F331FF901EC5FFE4F9189682F691B86
:10310000770B9B01449FB001459F700D700D1124FA
:10311000229FC001239F900D900D1124860F971FB1
:103120007EDE382F8A3030F6252D231B08F420E070
:10313000F701E45CFC4F213108F020E13081320FCF
:1031400008F43FEF3083B6CF87E993E00E9439104F
:1031500010920D0308958091070380FF08C085E257
:1031600093E09F938F930E946D040F900F9089E0DE
:103170008093970380915B0190915C01A0915D0128
:103180008093980390939903A0939A038FE7809379
:103190009B038FEF80939C0387E993E00E94391093
:1031A00010920D0308958091070380FF89C08BE082
:1031B00093E09F938F930E946D04809107030F907B
:1031C0000F9080FF7DC08091970383701F928F9333
:1031D0008CEE92E09F938F930E946D048091070381
:1031E0000F900F900F900F9080FF6AC0809197030F
:1031F000869586951F928F938FEC92E09F938F9385
:103200000E946D04809107030F900F900F900F9014
:1032100080FF56C0809198031F928F9381EB92E0BC
:103220009F938F930E946D04809107030F900F90DE
:103230000F900F9080FF44C0809199031F928F934D
:1032400083E992E09F938F930E946D04809107031E
:103250000F900F900F900F9080FF32C080919A03D3
:103260001F928F9385E792E09F938F930E946D0446
:10327000809107030F900F900F900F9080FF20C058
:1032800080919B031F928F9387E592E09F938F938A
:103290000E946D04809107030F900F900F900F9084
:1032A00080FF0EC080919C031F928F9389E392E070
:1032B0009F938F930E946D040F900F900F900F902B
:1032C000089580E008950F931F93CF93DF93C82F45
:1032D000D62F8A01F6DF94E0C99F900111242C5F5C
:1032E0003E4F2D0F311DF90190819F3F29F0F801CC
:1032F000E80FF11D90838F5FDF91CF911F910F91A8
:103300000895E091EF01F091F00109950895089575
:103310001F93CF93DF93C62FD42F122FF8DF97FD83
:1033200008C0E091EB01F091EC01212F4D2F6C2FA3
:103330000995DF91CF911F910895E091ED01F091F2
:10334000EE0109950895A8E0B0E0E9EAF9E10C94EE
:10335000B633FC0110919A0323E0129F70011124EF
:10336000F694E794F694E7945E2C812E912C8FEFDF
:1033700090E0B4010E945C33762E8281882369F04C
:1033800040E060E080E0D9DFECE3F3E080E1DF01E2
:103390001D928A95E9F710920C0380910B038F5FC1
:1033A00080930B038CE3A82E83E0B82E612C8E183B
:1033B0009F08650100E080910C03802B09F069C033
:1033C0000E944D34853595400CF063C0F5011083A3
:1033D000AE014F5F5F4F662D802F75DF8823C1F0F0
:1033E000F6012081E981F0E0521608F061C030E07A
:1033F0002E193F092E9DC0012F9D900D3E9D900DD1
:103400001124B4010E944833262F412FCF0180DFC1
:103410000F5FF4E0CF0ED11C043069F663942FEFF8
:10342000A21AB20A84E06812C4CF80910B038711FC
:1034300002C010920B0380910C038F5F8D3108F452
:1034400041C010920C0324E433E083E040E453E0F5
:103450009FEF910FD901ECE3F3E0833021F4648511
:10346000161301C094876C91611720F09C931496F9
:103470001C931497319611964E175F0771F7815080
:10348000245031098111E6CF80E02896EFE00C94BA
:10349000D233D6018C91882309F49ACF811708F092
:1034A00097CF90910B03971193CF81508C9390CF2E
:1034B000129FC0011124B7010E944833462F20E01B
:1034C00060E0A4CF80930C03DFCFA8E0B0E0EBE690
:1034D000FAE10C94BB33E82EB62EA42E0E9499106C
:1034E000882309F455C0F12CAA2039F0AE014F5FB2
:1034F0005F4F6B2D8E2DE7DEF82E0F2D10E08091A3
:103500000E03800F912F911D09976CF188E090E0D8
:103510006C01C01AD10AB801615F7C4FA6018FE02F
:1035200093E00E946834B801695E7C4FA60187E190
:1035300093E00E946834A601440F551FB801660F3E
:10354000771F695D7C4F87E293E00E946834B80181
:10355000615E7C4FA6018FE193E00E94683488E0B1
:103560008F1980930E0310910E03DE01119640E037
:10357000242F210FF41210C020930E03AA2041F033
:10358000809197038C7F883019F46B2D8E2D55DD3B
:103590002896EAE00C94D7335D91852F90E030E0D7
:1035A000B901625F7C4FFC01EE0FFF1FEC5EFE4F26
:1035B0000081FB010183880F991FFC01EC5FFE4F26
:1035C0008189FB018187518B220F331FF901E25F53
:1035D000FC4F128E118E4F5FCBCF80919F03909145
:1035E000A003A091A103B091A2032AE0B695A795EC
:1035F000979587952A95D1F783709927AA27BB2796
:1036000082309105A105B10571F083309105A105C6
:10361000B10561F040E060E00197A105B10541F41A
:1036200064E180E08ACE44E160E0FBCF44E164E104
:1036300084E1F8CF81E00895FDCF08950C94EC0467
:103640000895FADFFBCF982F990F890F93E0980F19
:103650009D3008F09CE00895AF92BF92DF92EF9208
:10366000FF920F931F93CF93DF938C017B01FC019B
:103670008081E9DFC82FD92E20919B0331E0230FF1
:1036800008F42FEF30E050E040E06FEF7FEF80E094
:1036900090E00E9491335901D0E02C2FCD1578F0A5
:1036A00081E0FBE0FD1508F480E0DF91CF911F91F0
:1036B0000F91FF90EF90DF90BF90AF900895FE01C3
:1036C000EC5FFE4F80A5F80191818923F1F04091D4
:1036D000A3034150042E000C550B47FF18C0C50131
:1036E00060919B0321E0620F08F46FEF8BDBAC016C
:1036F000609198037091990380919A03F70109955D
:103700009ADC472F282FCE0103DE2196C6CFFA017F
:10371000ED55FC4F818982130AC0FA01EE0FFF1F9D
:10372000ED55FC4F818D928D8A159B05C8F2415055
:103730005109D3CF69EF77E18FCF6BE078E18CCF80
:10374000AAE0B0E0E6EAFBE10C94B3338C832B01F2
:103750004A835B83FB01808176DF9D83F091A30325
:10376000FE83282F30E03A872987C901880F991FE7
:10377000FC01EC5FFE4F6F01FC818F2F90E09C01FC
:103780002F5F3F4F38872F83ED81F985FE1740F07B
:1037900081E0EC3008F080E02A96E2E10C94CF332F
:1037A000E985FA85EC5FFE4F80A5F20191818923BE
:1037B000F9F020909803309099032F8138852D558A
:1037C0003C4F39013C81398310E029813E81231728
:1037D000C0F020919A03129F010E10E0111D1124D8
:1037E000B101812F28DC472F282F89859A8590DD0C
:1037F00089859A8501969A87898792E0C90ED11C9E
:10380000C3CFF30181913F01F601A088A81ABB083C
:103810008188F3018781881A9908AA9C9001AB9C42
:10382000300D300D1124889CC001899C900D900DA5
:103830001124820F931FF3DA082F60919B0321E07C
:10384000620F08F46FEFF301EE0FFF1FE35AF3402E
:1038500085899689D7DA7C019401A501B101812F70
:10386000EA81FB8109951B01182FF981FF5FF9831C
:10387000ACCFBC012091A30331E0231B08F420E06E
:103880004FE357E1822F5CCFBC014FE357E180E06B
:1038900057CFBC012091A30331E0231B08F420E0A3
:1038A00049E557E1822F4CCFBC0149E557E180E063
:1038B00047CFBC012091A30331E0231B08F420E093
:1038C00042E957E1822F3CCFBC0142E957E180E059
:1038D00037CFBC012091A30331E0231B08F420E083
:1038E00044EC57E1822F2CCFBC0144EC57E180E03F
:1038F00027CFBC012091A30331E0231B08F420E073
:103900004CED57E1822F1CCFBC014CED57E180E01C
:1039100017CFB0E0A0E0EFE8FCE10C94BD337C01F0
:10392000FC01808190DEC82F192F6091980370915F
:10393000990380919A037FDB062FD72EC82ED0E003
:10394000C11748F081E01C3008F080E0CDB7DEB749
:10395000E8E00C94D933FE01EC5FFE4F80A5F7013F
:103960009181892329F02C2D4D2D602FCE01D0DCA3
:103970002196E6CFB0E0A0E0E0ECFCE10C94B83397
:103980007C01DC018C915FDE882EB92EF7018281EB
:10399000882359F040E060E080E0CFDCECE3F3E026
:1039A00080E1DF011D928A95E9F7F701808181119D
:1039B00017C080914D0390914E030E948E2A9C0166
:1039C00081E02931310508F480E080934C032931EE
:1039D000310530F00E941D2B90934E0380934D03D0
:1039E000A12C00E0912C8AEA782E05C082E089158E
:1039F00008F455C000E0802F90E0F4E0AF9EE001B5
:103A000011249E012C5F3E4F6901C80ED91ED601BC
:103A1000EC91E81508F43BC0EB1508F038C093941E
:103A2000F0E0EC5FFE4F20A5F7013181232309F47C
:103A30002EC0C45CDC4FC80FD91F1881212F35E57B
:103A4000231B08F420E0672D621B70919903372D2A
:103A5000310F08F43FEF40919A03232F220F230FD9
:103A60002E5F249F020E20E0211D1124822FE3DA15
:103A7000472F282FD6018C9190E04ADC80914C038F
:103A8000882329F021E0121B08F410E018830F5F4F
:103A9000043009F0B0CFA39434E0A312A7CF81E0A3
:103AA0009BE09B1508F480E0CDB7DEB7EDE00C9409
:103AB000D43381E00895FDCF0895FBCF0895CF93CF
:103AC000DF93FC0180818150BEDDEC016D2FF3DFBF
:103AD0006D2F8C2FF2DFDF91CF9108954F925F927F
:103AE0006F927F928F929F92AF92BF92CF92DF920E
:103AF000EF92FF92CF93DF9300D000D0CDB7DEB727
:103B00008091370390913803A0913903B0913A0323
:103B100089839A83AB83BC83BC01CD010E94972A21
:103B20006B017C010E94292B60933703709338034B
:103B30008093390390933A03A0910E03EEE0F3E0F3
:103B40002A2F30E088248A94982CA12CB12C8C1830
:103B50009D08AE08BF08A3132EC020930E03A091AA
:103B60003B03A98320913D01223009F4CDC0B0F57B
:103B700021114AC010923E0160939F037093A003ED
:103B80008093A1039093A20389E2EEE0F3E0A3EA1D
:103B9000B3E001900D928A95E1F790919703892FF8
:103BA000837019F0892F8695869580933B0381E079
:103BB00080933D0116C0418D528D2A01712C612CDC
:103BC00084149504A604B70420F421503F5F329674
:103BD000C2CF4C0D5D1D528F418FF8CF233009F4B9
:103BE0009DC00F900F900F900F90DF91CF91FF909D
:103BF000EF90DF90CF90BF90AF909F908F907F908D
:103C00006F905F904F90089580914101B981B813F2
:103C100028C09091970393702091420130E081E099
:103C20009217130609F480E081708093400180911F
:103C30009C0390913F01981731F080933F0140E041
:103C400060E080E07ADB2981203168F4E22FE150E6
:103C5000EF3008F5F0E0EE5FFA4C8EE391E00C9463
:103C6000AD3381E0E1CF89818F3F09F43BC080E033
:103C700090913E019F5F90933E01811139C082E097
:103C800080933D01809140019981811166C091111D
:103C90002DC083E08DCF80914001882349F340E01F
:103CA00060E080E04ADBE3CF34DEE2CF63DEE0CFEA
:103CB0004ADBDECF3FDDDCCF40DDDACFDADDD8CF47
:103CC000E3DDD6CFE6DDD4CFEFDDD2CFF2DDD0CF4E
:103CD000FBDDCECFFEDDCCCF07DECACF0ADEC8CFFC
:103CE00013DEC6CF7ADC82E080933D01AADC08C0F7
:103CF000A981AA2309F475CF80913D018230B1F3E7
:103D00008EE391E0DCDE6DCFB981B093410180910B
:103D10009703837080934201F4DABBCF80910D0347
:103D2000882331F087E993E00E94391010920D0347
:103D300080919F039091A003A091A103B091A20351
:103D4000BC01CD010E94972A603171058105910562
:103D500008F447CF10923D0144CF992309F441CF95
:103D6000C5CFE091E901F091EA0109951092A30312
:103D70008FEF9FEF9093BD038093BC039093BF039D
:103D80008093BE039093C1038093C0039093C303B9
:103D90008093C2039093C5038093C4039093C70399
:103DA0008093C6039093C9038093C8039093CB0379
:103DB0008093CA0310920E039093280380932703E5
:103DC00090932A038093290390932C0380932B03D1
:103DD00090932E0380932D039093300380932F03B1
:103DE0009093320380933103909334038093330391
:103DF000909336038093350381E080930D0387E928
:103E000093E00E94371010920D03809197038C7FEE
:103E100069F48091070380FF08C084EE91E09F93CE
:103E20008F930E946D040F900F9095D9BCC908958F
:103E3000CF93C82F8091970391E0892780939703B0
:103E400010923D018C2FCFD88091070380FF19C0BD
:103E50002091970323708EED91E0CC2311F080EE3A
:103E600091E01F922F939F938F938DEA91E09F9300
:103E70008F930E946D040F900F900F900F900F90F2
:103E80000F90CF91089581E0D3CF809197038370F5
:103E900011F410923D01809197038C7F8160809393
:103EA00097030895F2DF81E09EC8809197038370A5
:103EB00011F010923D01809197038C7F80939703BE
:103EC0000895F3DF81E08FC8CF93C62F90919703B9
:103ED000937039F1811127C09460909397031092E9
:103EE0003D018C2F80D88091070380FF1AC020915C
:103EF0009703269526958EED91E0CC2311F080EE68
:103F000091E01F922F939F938F9383E991E09F936A
:103F10008F930E946D040F900F900F900F900F9051
:103F20000F90CF910895803110F09C63D6CF880F09
:103F3000880F982BD2CF682F80919703869586950E
:103F40008F5F803108F081E0BFCF81E0F4CF682F30
:103F500090919703969596958FEF890F913009F47C
:103F60008FE0B2CF81E0F3CFCF93C22F9091970330
:103F7000937071F1809398036093990340939A032F
:103F8000822F31D88091070380FF22C040919A038D
:103F900030919903209198038EED91E0CC2311F09C
:103FA00080EE91E01F924F931F923F931F922F93A9
:103FB0009F938F9380E791E09F938F930E946D046E
:103FC0008DB79EB70A960FB6F8949EBF0FBE8DBFF1
:103FD000CF910895282FE7E9F3E09181892F90E0B0
:103FE000438162810896C0CF81E0F4CF282FE7E9B2
:103FF000F3E08181438162818850990BB5CF81E0E4
:10400000F5CF282FE7E9F3E0628130E1630F08F490
:104010006FEF8181438190E0A7CF81E0F2CF282F1D
:10402000E7E9F3E0628130E1631B08F460E081813D
:10403000438190E099CF81E0F2CF282FE7E9F3E0C8
:10404000438130E1430F08F44FEF8181628190E0BA
:104050008BCF81E0F2CF282FE7E9F3E0438130E115
:10406000431B08F440E08181628190E07DCF81E0D4
:10407000F2CFCF93C62F80939B03862F0E94F31716
:104080008091070380FF18C020919B038EED91E083
:10409000CC2311F080EE91E01F922F939F938F938A
:1040A00081E591E09F938F930E946D040F900F9094
:1040B0000F900F900F900F90CF910895682F20913F
:1040C0009B0330E1230F08F42FEF822FD2CF81E042
:1040D000F5CF682F20919B0330E1231B08F420E0EB
:1040E000822FC7CF81E0F5CFCF93C62F80939C035B
:1040F000862F0E94F3178091070380FF18C020913C
:104100009C038EED91E0CC2311F080EE91E01F92A4
:104110002F939F938F9382E391E09F938F930E94BD
:104120006D040F900F900F900F900F900F90CF9104
:104130000895682F80919C038F3F59F0E0E0811132
:1041400003C081E0E1E0E81BF0E0E951FE4F80812F
:10415000CBCF80E0F7CF81E0ECCFFDCF08959CC7B7
:1041600008950C9499100895E0E5F3E089E0DF01EB
:104170001D928A95E9F713C1FC01828190E00196B6
:1041800065E070E00E9448339C01938181E09217C2
:10419000130609F080E008950F931F93CF93DF93E8
:1041A000EC01162F042FE8DF811117C08A8190E0FF
:1041B000FE01E80FF91F00FB17F91483019665E073
:1041C00070E00E9448338A8388818F5F888381E012
:1041D000DF91CF911F910F91089580E0F9CFCF9398
:1041E000DF93FC01EA01A38182818A17D9F0AE0F27
:1041F000BF2FB11D14968C9187FB992790F98F776B
:10420000DB018C939883838190E0019665E070E0F8
:104210000E944833838381818F5F818381E0DF91B6
:10422000CF91089580E0FBCF462F682F80E593E083
:10423000B3CFAB01BC0180E593E0D1CFCF93DF9347
:10424000D62F0E949205C82F882341F06AE070E0C3
:1042500089EAD11101C08AEA0E9486088C2FDF9179
:10426000CF910895A2E0B0E0E8E3F1E20C94C1330D
:1042700080914F03882351F010924F038091520395
:10428000809353038091500380935103C3D069DF1F
:10429000182F882379F010E004C069818A81CEDF6D
:1042A000102FBE016F5F7F4FCE010296C2DF082F35
:1042B0008111F3CF812F2296E4E00C94DD338FE857
:1042C00091E00197F1F700C00000089590E06623A7
:1042D000E9F08F5F9D4FFC0180818F3FB1F0E82FA7
:1042E000E295EF70F0E041A18F7021E030E0B9017C
:1042F00002C0660F771F8A95E2F7CB01962F909543
:10430000942391A392A1892B82A308958B5F9D4F43
:10431000E2CF90E06623A1F08F5F9D4FFC012081EA
:104320002F3F89F0E22FE295EF70F0E080A190E05E
:104330002F7002C0959587952A95E2F781700895B0
:104340008B5F9D4FEBCF80E008950895CF93DF936F
:10435000C0E080915903C81750F0B1DFC0E08091F0
:104360005903C81760F0F1DFDF91CF91089560E045
:104370008C2FACDF61E08C2FA9DFCF5FEACF60E04C
:104380008C2FC7DFD82F61E08C2FC3DFEC2FF0E03C
:10439000E25AFC4F880F8D2B8083CF5FE0CF84E003
:1043A00080935903D3CF1F93CF93DF93182FE42F1C
:1043B000EE0F6E2BC82FD0E0DE01A25ABC4FEC915D
:1043C0008E2F8370681711F1EE0FEE0FE62BEC9332
:1043D000EF70F0E0EF50FE4FC65ADC4F90818881BD
:1043E000980F988394301CF060E0812F1DDF888146
:1043F0008D3F1CF461E0812F17DF8881082E000CAF
:10440000990B64E070E00E945C338883DF91CF9168
:104410001F910895CF93DF93C0E080915903C8178F
:1044200018F0DF91CF91089561E08C2F72DFD82FC3
:1044300060E08C2F6EDF682F4D2F8C2FB4DFCF5FA5
:10444000ECCF879A0895FC01EE0FFF1FE80FF91FCC
:10445000E453FC4F6183408322830895ECECF3E046
:10446000818360834283339693E0E03FF907C1F78D
:10447000089531B33F7721B320684FB7F8948CEC9F
:1044800093E0FC010196508168E021BB000000C070
:1044900057FF31BB550F000000C000C000C031BB4A
:1044A00000C06A9591F753E0803F950751F74FBFE1
:1044B0008FE594E00197F1F700C0000008950C9497
:1044C0002910089580E00E942514817008950E94AB
:1044D0001C152FEF86E791E0215080409040E1F7D6
:1044E00000C000000E941C15EDDF882319F0E7DFF3
:1044F0000C946A2B0895EBCF0895CF93DF93EB01D3
:1045000086319C4701F50E94E40E9D81992391F02C
:104510008A7A91E009F490E090936203811108C0D7
:1045200089E296D60E94910F80E0DF91CF910895A5
:1045300085E3F7CF80916203811103C089E29FD6A2
:10454000F1CF85E3FCCF81E0F0CFCF93DF93EC0197
:10455000FB018581882309F4CEC09E0130572332A8
:10456000310508F0AEC08DE893E00E943310FE01E3
:10457000E150F047E232F10520F4EF5EFA4C0C9482
:10458000AD3380918D03816080938D0393C08091C2
:104590008E03886080938E038DC080918D0382602E
:1045A000F3CF80918D038460EFCF80918D0388607D
:1045B000EBCF80918E038160EDCF80918E0382607E
:1045C000E9CF80918D038061DFCF80918D03806280
:1045D000DBCF80918D038064D7CF0E94C40A809185
:1045E0008D038068D1CF80918D038C60CDCF809179
:1045F0008E038360CFCF80918D038E7FC5CF809156
:104600008E03877FC7CF80918D038D7FBDCF809133
:104610008D038B7FB9CF80918D03877FB5CF80913C
:104620008E038E7FB7CF80918E038D7FB3CF809125
:104630008D038F7EA9CF80918D038F7DA5CF809133
:104640008D038F7BA1CF0E94C40A80918D038F7749
:104650009BCF80918D03837F97CF80918E038C7F3A
:1046600099CF80918D0382FB992790F921E09227C1
:1046700090FB82F990FB83F987CF80918E03982F6E
:10468000909591708E7F892B90FB81F983CF9091CB
:104690008D03892F8F7B96FF806476CF0E94C40A9A
:1046A00090918D03892F97FB87F980586DCF81E01A
:1046B0000E943B108DE893E00E9435100E94C40ACE
:1046C00080E0DF91CF91089580E0F2CF90918D034B
:1046D000892F8F7E94FF806157CF90918D03892F12
:1046E0008E7F90FF816050CF90918E03892F877FBE
:1046F00093FF88604FCF81E0E4CF282F35EB230371
:10470000C001112497FF04C080589109892F089592
:1047100080589F4FFBCF8091690380FF0DC060914F
:10472000480170E0660F771F6038710570F56115FC
:10473000710569F1862F089581FF07C060914801D6
:1047400084E0689FB0011124EFCF6091480182FDA1
:104750000AC0809168038823A9F0209147016091E5
:104760004801821710F088E0ECCF869FC001112429
:1047700033E0880F991F3A95E1F7622F70E00E94AD
:104780005C33D2CF68E070E0D5CF8FE7089581E049
:1047900008958091690380FF0CC06091440170E02E
:1047A00075956795759567956115710549F1862F22
:1047B000089581FF06C06091440170E0759567958A
:1047C000F3CF6091440182FD0BC090916703992360
:1047D000A1F06091430180914401961738F0682F51
:1047E00070E06038710500F38FE70895899FC0017C
:1047F000112470E00E945C33F4CF61E070E0D7CF09
:1048000081E008958D3C29F486DF819580936D03C6
:1048100008958E3C11F47FDFF9CF8F3C29F47BDFC4
:10482000819580936C030895803D11F474DFF9CF76
:10483000893D21F4AEDF80936E0308958A3D19F41B
:10484000A8DF8195F8CF8B3D29F4A3DF8195809374
:104850006F0308958C3D11F49CDFF9CF9FE2980F10
:10486000983070F4815D990B21E030E001C0220F97
:104870008A95EAF780916B03822B80936B030895EE
:104880008D3D31F4809169038160809369030895BF
:104890008E3D21F4809169038260F7CF8F3DB9F797
:1048A000809169038460F1CF40916C038D3C59F491
:1048B00080916D0387FF0DC010926D0341110BC0F5
:1048C0001092680308C08E3C81F480916D03181625
:1048D0009CF3442381F080916E0390916F03892BA8
:1048E00009F05AC01092670308958F3C49F447FFBE
:1048F000F0CF10926C0380916D038111ECCFE0CF6B
:10490000803D19F41416ACF3E4CF90916E03893D09
:1049100029F41916F4F610926E03DBCF8A3D19F4D0
:1049200097FFD7CFF8CF90916F038B3D29F497FF76
:10493000D0CF10926F03CDCF8C3D19F41916CCF364
:10494000C8CF9FE2980F983090F4815D990B21E0D9
:1049500030E0B90102C0660F771F8A95E2F7CB01FC
:10496000809590916B03892380936B03B2CF8D3D2B
:1049700031F4809169038E7F80936903AACF8E3DC5
:1049800021F4809169038D7FF7CF8F3D09F0A1CF8E
:10499000809169038B7FF0CF08958091070383FF97
:1049A00096C080E794E09F938F930E946D0480915E
:1049B0006B031F928F938BE694E09F938F930E94DB
:1049C0006D0489E694E09F938F930E946D0480911B
:1049D0006C03282F082E000C330B3F938F9386E631
:1049E00094E09F938F930E946D0484E694E09F93DC
:1049F0008F930E946D0480916D03282F082E000C68
:104A0000330B3F938F9381E694E09F938F930E94A3
:104A10006D048FE594E09F938F930E946D048091C5
:104A20006E03282F082E000C330B3F938F938CE5D9
:104A300094E09F938F930E946D048AE594E09F9386
:104A40008F930E946D0480916F03282F082E000C15
:104A5000330B3F938F9387E594E09F938F930E944E
:104A60006D0484E594E09F938F930E946D048DB74D
:104A70009EB780960FB6F8949EBF0FBE8DBF8091F3
:104A800068031F928F9381E594E09F938F930E9418
:104A90006D048FE494E09F938F930E946D04809146
:104AA00069031F928F938CE494E09F938F930E94ED
:104AB0006D0489E494E09F938F930E946D048DB7F9
:104AC0009EB70C960FB6F8949EBF0FBE8DBFB5D59E
:104AD00020916C0330916D03232B21F080936503AB
:104AE0009093660320916E0330916F03232B21F086
:104AF00080936303909364038AE693E06AC286E03E
:104B0000EAE6F3E0DF011D928A95E9F71092680367
:104B100010926703109269030895FC01828181114C
:104B20000DC0838181110AC08481811107C081E099
:104B30009581911101C080E08170089581E0FCCFE2
:104B4000A6E0B0E0E6EAF5E20C94C23386E0EAE6DD
:104B5000F3E0DE01119601900D928A95E1F7109233
:104B60006C0310926D0310926E0310926F038B8191
:104B70009C81892B81F08091650390916603CED44E
:104B80009C01809168038823A9F1909149019217B3
:104B9000130608F43CC08D819E81892B89F0809199
:104BA000630390916403BAD49C01809167038823C6
:104BB00009F463C0909145019217130608F46BC085
:104BC000BE016F5F7F4F8AE693E089D3811104C0F5
:104BD0008AE693E0A2DF8111E0DE86E0FE013196F5
:104BE000AAE6B3E001900D928A95E1F72696E3E0FC
:104BF0000C94DE3340914A019AE0499FA0011124B0
:104C00004217530740F68F5F8093680302C08F3FBF
:104C1000D1F71B81112351F07EDD9FEF11160CF4AB
:104C200091E0899F802D112480936C031C811123B6
:104C300051F071DD9FEF11160CF491E0899F802DEA
:104C4000112480936D0380916C03882309F4A3CF12
:104C500010916D03112309F49ECF4FDD882349F095
:104C600080936C03812F49DD882329F080936D03A5
:104C700092CF81E0F5CF81E0F9CF409146019AE0F3
:104C8000499FA00111244217530708F099CF8F5F65
:104C90008093670302C08F3FD1F71D81112351F02C
:104CA00078DD9FEF11160CF491E0899F802D11247F
:104CB00080936E031E81112351F06BDD9FEF11165F
:104CC0000CF491E0899F802D112480936F038091D3
:104CD0006E03882309F474CF10916F03112309F434
:104CE0006FCF0BDD882349F080936E03812F05DDA4
:104CF000882329F080936F0363CF81E0F5CF81E0B3
:104D0000F9CF0F931F93CF93DF93C42FD22FFC01C2
:104D100085818823C1F0409372038FD490937103EF
:104D20008093700380E28C0F883040F4C77081E07C
:104D300001C0880FCA95EAF70E94A308DF91CF91BE
:104D40001F910F91089510917203141331C0809137
:104D5000700390917103E2D3883C910548F5C0E25D
:104D6000CD0F1D17B9F080E2810F883040F4177025
:104D700081E001C0880F1A95EAF70E94A808C830A0
:104D800048F481E09D2F977001C0880F9A95EAF74B
:104D90000E94A308802F0E949C08C83078F6D77024
:104DA00081E001C0880FDA95EAF70E94A808C6CF13
:104DB00080E28C0F883010F6C77081E001C0880F48
:104DC000CA95EAF7F2CF0F93FC01CB01E851FC47FB
:104DD000E730F10588F5ED5CFA4C0C94AD3306E252
:104DE00021EE41EE6AE17CE78CDF80E00F910895CF
:104DF00007E225EE45EE6BE17CE7F6CF06E221EE19
:104E000040EE68E17CE7F0CF07E225EE44EE69E191
:104E10007CE7EACF06E221EE42EE6CE17CE7E4CFEC
:104E200007E225EE46EE6DE17CE7DECF08E221E009
:104E300045EE6EE17CE7D8CFFB018581882319F030
:104E400010927203D3CF81E0D1CF909378038093F7
:104E50007703089508950895DDD2982F81E0913069
:104E600009F080E00895E0917703F091780330979E
:104E700039F00190F081E02D309711F009950895F7
:104E800080E00895EF92FF920F931F93CF93DF93EB
:104E9000EC01E0917703F09178033097F1F1028013
:104EA000F381E02D3097C9F109958091070382FFC6
:104EB00034C080FF0DC088811F928F9388EB94E0EF
:104EC0009F938F930E946D040F900F900F900F90FF
:104ED0007E0186E0E80EF11C02EB14E080910703EE
:104EE00080FF0BC08A811F928F931F930F930E94A4
:104EF0006D040F900F900F900F902196CE15DF0547
:104F000069F78091070380FF08C080EB94E09F93CE
:104F10008F930E946D040F900F90CDB7DEB7E6E03F
:104F20000C94DB33EF92FF920F931F93CF93DF9399
:104F3000EC01E0917703F0917803309709F444C0D5
:104F400084819581892B09F43FC086E088830480A1
:104F5000F581E02DCE0109958091070382FF34C0D1
:104F600080FF0DC089811F928F938BE994E09F93FE
:104F70008F930E946D040F900F900F900F907E0101
:104F80008EE1E80EF11C05E914E08091070380FF33
:104F90000BC08A811F928F931F930F930E946D0401
:104FA0000F900F900F900F902196CE15DF0569F7A7
:104FB0008091070380FF08C083E994E09F938F935B
:104FC0000E946D040F900F90CDB7DEB7E6E00C9411
:104FD000DB33DC01E0917703F0917803309759F0EF
:104FE00086819781892B39F082E08C930680F78146
:104FF000E02DCD0109950895A3E0B0E0E2E0F8E2EC
:105000000C94C3339C0180917503909176038217B1
:105010009307B1F03093760320937503E091770303
:10502000F0917803309761F00084F185E02D30979E
:1050300039F083E089833B832A83CE010196099569
:105040002396E2E00C94DF33A3E0B0E0EAE2F8E27A
:105050000C94C3339C018091730390917403821765
:105060009307B1F03093740320937303E0917703B7
:10507000F0917803309761F00084F185E02D30974E
:1050800039F084E089833B832A83CE010196099518
:105090002396E2E00C94DF33E0917703F0917803FC
:1050A000309731F00284F385E02D309709F00995AF
:1050B0000895CF93DF93C0913B01D0913C0122969C
:1050C000CBDE882381F080918D0387FF0CC0C091D7
:1050D0003901D0913A0122969EE180E0915028F466
:1050E000DF91CF91089596E0F8CF29912223B1F373
:1050F0008F5FF4CFCF93C82F882319F1ADDE8823BB
:1051000019F180918D0387FF1FC0EC2FE695E6957E
:10511000E695C03FB0F48091390190913A01E80FD3
:10512000F92FF11D228130E0C77081E090E002C0CC
:10513000880F991FCA95E2F72823392381E0232B92
:1051400009F480E0CF91089580913B0190913C015A
:10515000FC013296089621912C1721F0E817F907E7
:10516000D1F7EFCF81E0EECF9C01FC0132968FEFBB
:1051700090E04191461751F08F3F19F4411101C061
:10518000892F9F5F9630A9F78F3F09F40895280F64
:10519000311D87FD3A95F901628308959C01FC0158
:1051A0003296285F3F4F8191861303C0DF0111972C
:1051B0001C92E217F307B9F70895E62FE695E695F6
:1051C000E695603F70F4E80FF92FF11D677021E05C
:1051D00030E001C0220F6A95EAF78281822B828338
:1051E00008958091070380FF0CC01F926F938FEE8C
:1051F00094E09F938F930E946D040F900F900F90F7
:105200000F900895E62FE695E695E695603F78F4D1
:10521000E80FF92FF11D677081E090E001C0880F61
:105220006A95EAF780959281892382830895809117
:10523000070380FF0CC01F926F9381ED94E09F9352
:105240008F930E946D040F900F900F900F90089510
:10525000CF93C82F01DE6C2F882359F080918D03E6
:1052600087FF07C08091390190913A01A6DFCF9165
:10527000089580913B0190913C0176DFF8CFCF9368
:10528000C82FEADD6C2F882359F080918D0387FFAA
:1052900007C08091390190913A01B4DFCF91089510
:1052A00080913B0190913C0179DFF8CFD5DD8823D7
:1052B00079F080918D0387FF0BC0E0913901F09167
:1052C0003A0132968EE1DF011D928A95E9F7089541
:1052D000E0913B01F0913C01329686E0F4CFDC0195
:1052E000FB0111969C9111978181981322C012960F
:1052F0008C911297882319F0928189131AC0139602
:105300008C911397882319F09381891312C01596F5
:105310008C911597882319F0958189130AC01496EA
:105320009C91992321F081E02481291303C080E01E
:1053300001C081E0817008950895FECF0895A4E032
:10534000B0E0E5EAF9E20C94C333811112C081E0C8
:1053500080934E0180914B0190914C01A0914D01A1
:10536000B0914E01BC01CD01E8DF2496E2E00C943F
:10537000DF3382E0EDCFA4E0B0E0E1ECF9E20C94A1
:10538000C33383E080934E0180914B0190914C0197
:10539000A0914D01B0914E01BC01CD01CEDF24960C
:1053A000E2E00C94DF33CBCF0895A4E0B0E0EBED66
:1053B000F9E20C94C33381E080934E0180914B015C
:1053C00090914C01A0914D01B0914E01BC01CD01D5
:1053D000B4DF2496E2E00C94DF33E7CF0895A4E035
:1053E000B0E0E5EFF9E20C94C33391E0811101C024
:1053F00090E090934D0180914B0190914C01A091D0
:105400004D01B0914E01BC01CD0197DF2496E2E041
:105410000C94DF3380914D010895A4E0B0E0E3E106
:10542000FAE20C94C33380934C0180914B0190912C
:105430004C01A0914D01B0914E01BC01CD017DDF29
:105440002496E2E00C94DF3380914C010895A4E0AF
:10545000B0E0EDE2FAE20C94C33380934B0180910B
:105460004B0190914C01A0914D01B0914E01BC01B6
:10547000CD0163DF2496E2E00C94DF3380914B0191
:10548000089508950895FECF089508950895F9CFD9
:1054900008950F931F93CF93DF93F7DF0E941C159E
:1054A000F5DF09E713E0C0E0D0E08C2F0E9425145F
:1054B000F80181938F0191E0811101C090E0D92B17
:1054C000CF5FC43091F78D2FDF91CF911F910F9156
:1054D0000895E82FF0E0E758FC4F208130E081E0AC
:1054E00090E002C0880F991F6A95E2F728233923BC
:1054F00081E0232B09F480E0089541110EC0E82FCC
:10550000F0E0E758FC4F81E090E001C0880F6A9519
:10551000EAF780959081892380830895CF93DF9364
:10552000EC018BD08C1B9D0BDF91CF910895CF9216
:10553000DF92EF92FF92CF93DF9300D000D0CDB7F0
:10554000DEB76B017C0185D0DC01CB018C199D0994
:10555000AE09BF09BC01CD010F900F900F900F90C5
:10556000DF91CF91FF90EF90DF90CF90089585B7B6
:10557000806885BF85B7806885BF08951F921FB674
:105580001F9211248F939F93AF93BF9380917D03BC
:10559000811113C08091F0039091F103A091F20367
:1055A000B091F3034196A11DB11D8093F003909338
:1055B000F103A093F203B093F303BF91AF919F91D6
:1055C0008F911F901FBE1F9018958091F803843013
:1055D00031F10E944F0710927D0388E190E020E4B2
:1055E0000FB6F894A895809360000FBE20936000DA
:1055F00083B7817F846083BF83B7816083BF7894E2
:10560000889583B78E7F83BF0FB6F894A895809155
:105610006000886180936000109260000FBE089562
:105620000E94C40A0C94580782E084BD93E095BDA3
:105630009AEF97BD80936E0008952FB7F8948091EC
:10564000F0039091F103A091F203B091F3032FBF07
:105650000895A4E0B0E0EFE2FBE20C94C3338FB70F
:10566000F8942091F0033091F1034091F2035091AE
:10567000F30329833A834B835C838FBF69817A81EB
:105680008B819C812496E2E00C94DF3378941F9206
:105690001FB61F9211248F939F93AF93BF93809156
:1056A000F0039091F103A091F203B091F3030196FE
:1056B000A11DB11D8093F0039093F103A093F20319
:1056C000B093F303BF91AF919F918F911F901FBE35
:1056D0001F90189581E08093E00080E28093D800CD
:1056E0001092C9008FE19EE40197F1F700C000001D
:1056F00087E090EBDC018093010490930204A09377
:105700000304B093040488E19CE00FB6F894A895D4
:10571000809360000FBE90936000FFCF88E19CE013
:105720000FB6F894A895809360000FBE9093600028
:10573000FFCF282FCB01BA013091F8033430D9F4D0
:105740002F702093E9002FEF3091E800215035FDB4
:1057500006C035ED3A95F1F700002111F5CF209103
:10576000E80025FF08C050E040E0D9D28091E80071
:105770008E778093E8000895792F603229F440E213
:1057800050E0682F82E0D5CF0895BC0143E050E09F
:1057900084E0CFCFBC0146E050E084E0CACFBC013A
:1057A00040E250E084E0C5CFCF93DF93D82FC92FDC
:1057B00031DE48E050E06D2F7C2F81E0BADF88E0D9
:1057C000ED2FFC2FA1E8B3E001900D928A95E1F74F
:1057D000DF91CF910895A0E2B0E0E0EFFBE2D3C704
:1057E0008091F803843001F583E08093E900809193
:1057F000E80082FF19C08091E80090E085FF08C0B2
:1058000050E040E060E270E0CE010196D5D291E038
:105810008091E8008B778093E800992329F060E27B
:10582000CE0101960E947604A096E2E0C8C70895D2
:1058300083E395E09F938F930E946D048091F7031B
:105840000F900F90811107C03DD494D48091E20055
:1058500084608093E20008958FE295E09F938F9398
:105860000E946D041092F7030F900F9008958BE241
:1058700095E09F938F930E946D0497DD81E0AFDDEB
:105880000F900F90089587E295E09F938F930E9469
:105890006D046091F40381E0611101C080E06BDD73
:1058A0000F900F90089583E295E09F938F930E944D
:1058B0006D049091F80381E0943009F080E06091EC
:1058C000F40371DD0F900F90089520917F032F5FF7
:1058D000822F62E3D1D6992319F020937F03089594
:1058E00010927F03809180038823F1F08091F80368
:1058F0008430C1F49091E9009F702091EC00822FD8
:10590000817020FD80E8892B95E09093E9009091CB
:10591000EB0090FF04C09091EE0097FD08C08F70DF
:105920008093E9001092800308951092F100909105
:10593000E80095FDFACF9091E80090FFF0CF9091AC
:10594000E8009E779093E800EACF42E061EC81E0C6
:1059500035D342E261EC84E031D342E261EC82E093
:105960002DD342E260EC83E029D342E261EC85E092
:1059700025D39091F80381E0943009F080E06091A4
:10598000F403DDCC8091FA03893081F148F4823050
:1059900009F497C0833009F458C0813041F008956C
:1059A0008A3009F481C08B3009F469C00895809170
:1059B000F903813A09F048C08091E800877F80931D
:1059C000E8008091FD039091FE03892B59F468E073
:1059D00081E893E070E03DD28091E8008B7780937E
:1059E000E800089560E090E080E0F4CF8091F90352
:1059F000813251F58091FD039091FE038D7F892BBB
:105A000019F58091E800877F8093E8008091E80095
:105A100082FF16C09091F3008091F200029731F45A
:105A20008091F100813011F0863019F48091F100FD
:105A3000F4DC8091E8008B778093E800F3D204C017
:105A40008091F8038111E2CF08958091F903813AA2
:105A5000D9F78091FD039091FE03892BA9F78091DE
:105A6000E800877F8093E8008091E80080FFFCCF0A
:105A7000D1DC8093F1008091E8008E77DDCF8091BA
:105A8000F903813209F78091FD039091FE03892B80
:105A9000D9F68091E800877F8093E800C3D2809197
:105AA000FB039DDC0C94C40A8091F903813261F6FA
:105AB0008091E800877F8093E800B4D28091FC0356
:105AC000C6CC8091F903813A09F0BECF8091E800FD
:105AD000877F8093E8008091E80080FFFCCFCEDCD8
