:100000008EC30000C4C30000C2C30000C0C3000010
:10001000BEC30000BCC30000BAC30000B8C30000E8
:10002000B6C30000B4C300000C9436300C94023107
:100030000C941D2AACC30000AAC30000A8C3000092
:10004000A6C30000A4C30000A2C30000A0C3000018
:100050009EC300000C94A52A9AC3000098C3000018
:1000600096C3000094C3000092C3000090C3000038
:100070008EC300008CC300008AC3000088C3000048
:1000800086C3000084C3000082C3000080C3000058
:100090007EC300007CC300007AC3000078C3000068
:1000A00076C3000074C3000072C3000000000000AB
:1000B0000000000037002A000000000000000000DF
:1000C00006081908A8000000000042786C65645F0B
:1000D0007461736B3A20253032580A004F6E657395
:1000E000686F743A206163746976653A2025640A02
:1000F0000044454255473A2064697361626C656407
:100100002E0A0044454255473A20656E61626C658F
:10011000642E0A000A0025303862003A200025309B
:100120003258000A722F632030313233343536377B
:100130000A00726762206D61747269782073657459
:1001400020666C616773205B25735D3A2025750A14
:1001500000726762206D6174726978207365742023
:100160007370656564205B25735D3A2025750A0010
:10017000726762206D61747269782073657420689B
:100180007376205B25735D3A2025752C25752C250B
:10019000750A00726762206D6174726978206D6FF4
:1001A0006465205B25735D3A2025750A00726762DD
:1001B000206D617472697820746F67676C65205B6D
:1001C00025735D3A207267625F6D61747269785F52
:1001D000636F6E6669672E656E61626C65203D2097
:1001E00025750A007267625F6D61747269785F6974
:1001F0006E69745F64726976657273207267625F9C
:100200006D61747269785F636F6E6669672E6D6F7A
:100210006465203D20302E20577269746520646526
:100220006661756C742076616C75657320746F20DF
:10023000454550524F4D2E0A007267625F6D6174E2
:100240007269785F636F6E6669672E666C6167734B
:10025000203D2025640A007267625F6D61747269D7
:10026000785F636F6E6669672E7370656564203DA5
:100270002025640A007267625F6D61747269785F3D
:10028000636F6E6669672E6873762E76203D202533
:10029000640A007267625F6D61747269785F636F90
:1002A0006E6669672E6873762E73203D2025640A7A
:1002B000007267625F6D61747269785F636F6E660A
:1002C00069672E6873762E68203D2025640A0072C7
:1002D00067625F6D61747269785F636F6E6669678C
:1002E0002E6D6F6465203D2025640A007267625F91
:1002F0006D61747269785F636F6E6669672E656E93
:1003000061626C65203D2025640A007267625F6D42
:1003100061747269785F636F6E66696720454550E6
:10032000524F4D0A006565636F6E6669675F757051
:10033000646174655F7267625F6D61747269785F32
:1003400064656661756C740A0000010101010101B8
:10035000010101020202020202020202030303037C
:10036000030303030404040404040405050505054C
:10037000060606060607070707070808080809090A
:1003800009090A0A0A0B0B0B0C0C0C0D0D0D0E0EB5
:100390000E0F0F0F10101111111212131314141548
:1003A0001516161717181819191A1A1B1B1C1D1DBC
:1003B0001E1E1F2020212222232424252626272812
:1003C00029292A2B2C2D2D2E2F3031323233343542
:1003D000363738393A3B3C3D3E3F40414243444545
:1003E000464748494A4C4D4E4F5051535455565824
:1003F000595A5B5D5E5F616264656668696B6C6DCE
:100400006F7072737577787A7B7D7E808283858743
:10041000888A8C8E8F91939596989A9C9EA0A2A381
:10042000A5A7A9ABADAFB1B3B5B7BABCBEC0C2C486
:10043000C6C9CBCDCFD1D4D6D8DBDDDFE2E4E7E946
:10044000EBEEF0F3F5F8FAFDFF290A002575002F11
:10045000002575005D28002564002000256400202B
:100460000025640020002564007C002530325800FF
:100470006D6F7573656B6579205B62746E7C782037
:1004800079207620685D287265702F61636C293A47
:10049000205B000A002530325820006E6B726F5FBF
:1004A0007265706F72743A2025303258207C2000BB
:1004B0000A002530325820006B6579626F617264E2
:1004C0005F7265706F72743A2025303258207C203C
:1004D0000064656C5F6B65795F6269743A20636183
:1004E0006E27742064656C3A20253032580A00610A
:1004F00064645F6B65795F6269743A2063616E273B
:1005000074206164643A20253032580A0073757390
:1005100070656E64696E67206B6579626F61726485
:100520000D0A005B575D005B535D005B525D005B35
:10053000445D005B435D0020036300780074005F4E
:1005400000730074007500640069006F00200031C2
:1005500000320045003400000008034300580054F6
:100560000000000403090409027400040100A0FA59
:100570000904000001030101000921110100012209
:10058000440007058103080001090401000203007B
:100590000000092111010001222200070582032029
:1005A0000001070503032000010904020001030004
:1005B000000009211101000122B600070584032073
:1005C00000010904030001030000000921110100DA
:1005D0000122150007058503200001120100020019
:1005E000000008545701C40001010200010631FF58
:1005F0000974A1010975150026FF00952075088171
:1006000002C00660FF0961A1010962150026FF0012
:100610009520750881020963150026FF0095207555
:10062000089102C005010902A10185020901A1008A
:100630000509190129081500250195087501810290
:100640000501093009311581257F9502750881065C
:1006500009381581257F950175088106050C0A3832
:10066000021581257F950175088106C0C005010925
:1006700080A101850319012AB700150126B700954D
:100680000175108100C0050C0901A1018504190143
:100690002AA002150126A002950175108100C0054F
:1006A000010906A1018506050719E029E7150025BE
:1006B000019508750181020507190029EF1500252C
:1006C0000195F07501810205081901290595057547
:1006D000019102950175039101C005010906A1016F
:1006E000050719E029E71500250195087501810224
:1006F0009501750881010507190029FF150026FFDE
:1007000000950675088100050819012905150025C1
:1007100001950575019102950175039101C01124A0
:100720001FBECFEFDAE0DEBFCDBF04B603FE18C0B8
:100730008091000490910104A0910204B0910304FF
:100740008730904BA740B04B59F4109200041092A0
:1007500001041092020410920304E0E0F8E309950A
:1007600012E0A0E0B1E0E6E4F9E602C005900D92E7
:10077000AE31B107D9F724E0AEE1B2E001C01D927D
:10078000A030B207E1F70E94FB140C94393438CC46
:10079000FF93EF93E0911E02F0911F02309709F052
:1007A0000995EF91FF910895FC018591803011F03A
:1007B000EFDFFBCF0895FF27E0E230E247FF0CC0F8
:1007C000419597FF09C0EDE26095709580959095F1
:1007D000611D711D811D911D27FF02C0219530E310
:1007E00050E2AA27660F771F881F991FAA1FA41718
:1007F00010F0A41B63955A95A9F7AA3008F0A95FD9
:10080000A05DAF93F395611571058105910541F7E1
:10081000ED3211F4EF93F395F21718F43F93F3953B
:10082000FBCF8F91B5DFFA95E1F70895E991F99142
:100830008591803021F0853219F0AADFF9CF089533
:1008400020E0E89455915532C1F3503311F4689487
:1008500055915A3348F4505390F3220F022E220F31
:10086000220F200D250FF4CF0EF421958991999137
:10087000533619F3533729F1533559F1BC01882701
:100880009927E8945C3621F489919991689455915F
:10089000543639F446EF7EF077FF0DC08FEF9FEFAF
:1008A0000AC055374AE039F0583540E121F0523658
:1008B00042E009F00895FF93EF937DDFEF91FF9100
:1008C000B7CFFF93EF93FC0181918030B9F360DFE4
:1008D000FBCFFF93EF9368DFF1CFDF93CF93CDB7DB
:1008E000DEB72596A3DFCF91DF910895A0E2B0E0B7
:1008F000ECE7F4E00C942233FC019E012D5F3F4FA6
:100900008EE1D9011D928A95E9F78081833009F43F
:1009100052C040F48130C9F08230F1F1A096E2E09B
:100920000C943E33803109F44AC08E37B9F78FE713
:10093000898381818A8381E08B838CE08C8360E270
:10094000CE0101960E940E20E9CF81818C3030F7D4
:10095000228190E0DC01AA0FBB1FA80FB91FA45D84
:10096000BD4F2C932381A1818A2F90E0DC01AA0F37
:10097000BB1FA80FB91FA45DBD4F11962C932481F6
:10098000E1818E2F90E0FC01EE0FFF1FE80FF91FB1
:10099000E45DFD4F2283C2CFECE2F2E084E2DF01AE
:1009A0001D928A95E9F7E0E2F2E08CE0DF011D920A
:1009B0008A95E9F7B3CF818180933801AFCFA181C8
:1009C000AC3008F0ABCFB0E0A05EBD4F828163E0F9
:1009D0000E949B329C93A2CFB0E0A0E0E2EFF4E053
:1009E0000C9418330E947C2AEC01B0E0A0E044E0B3
:1009F000B695A795979587954A95D1F79C0120784C
:100A00003327232B09F08095982E990C0CE212E0E5
:100A10008EE5A82E81E0B82E90E2E92E92E0F92E24
:100A2000CC27D170CC24CA94D12C3CE0832E8E0CE0
:100A300030913801D7018D917D01813079F182307B
:100A400089F1D501ED915D01D80112968C91389F05
:100A5000C0011124B6010E94A732262FD801119699
:100A60008C91389FC0011124B6010E94A732462FF5
:100A7000D8018C91389FC0011124B6010E94A73281
:100A80008E2F90E00E94E7180D5F1F4F8E10D0CF81
:100A900081E0CDB7DEB7ECE00C943433209789F6D3
:100AA00030E0CFCF399DC0011124B6010E94A7329A
:100AB000362FC7CFA0E2B0E0E0E6F5E00C94223399
:100AC000FB019E012D5F3F4F8EE1D9011D928A955A
:100AD000E9F781E889838181880F880F9081890FE8
:100AE0008A8385818B8380915E0290915F0250D1D1
:100AF0008C8360E2CE0101960E940E2081E0A096D8
:100B0000E2E00C943E33A0E2B0E0E9E8F5E00C94BA
:100B10002033082F162F811104C08AEA611189EA57
:100B200074D2FE0133968EE1DF011D928A95E9F7BA
:100B300082E889830A831B8380915E0290915F0221
:100B400027D18C8360E2CE0101960E940E2081E0C5
:100B5000A096E4E00C943C33E42F811112C0643081
:100B600080F4443070F484E0689FB0011124E60FF3
:100B7000F72FF11DEE0FFF1FE455FF4F8591949164
:100B8000089581E090E00895E7CF089581E0089509
:100B9000FDCF0895FBCF0895F9CF08958BCF089529
:100BA00008950895FDCF089508950895A6E0B0E052
:100BB000ECEDF5E00C94213349835A839E83309108
:100BC000550289819A81311117C03E81332389F002
:100BD000222379F06BD5182F682F89819A8146D509
:100BE00069817A81812F0E94B9112696E3E00C94E5
:100BF0003D334CD5182FF4CF59D569817A81F3CF85
:100C0000FC01262F4081518162817381848195810D
:100C1000CDCFCF93DF93D82FC92F61E0F1DF6D2FB8
:100C20007C2FB6DF882359F061E08D2F9C2FE8DF01
:100C30006D2F7C2FAFDF8170DF91CF91089580E021
:100C4000FACF0F931F93CF93DF93D82FC92F60E074
:100C5000D7DF8C016D2F7C2FA4DF6D2F7C2FC80177
:100C6000A1DFDF91CF911F910F9108950F931F93F3
:100C7000CF93DF93D82FC92F61E0C2DF8C016D2F96
:100C80007C2F8ADF811106C080E0DF91CF911F9118
:100C90000F9108956D2F7C2FC80180DF8823A1F369
:100CA0006D2F7C2FC8010E944226882369F36D2F87
:100CB0007C2FC8010E940422882331F36D2F7C2FE2
:100CC000C8010E94DC218823F9F26D2F7C2FC80116
:100CD0000E9415158823C1F26D2F7C2FC8010E9438
:100CE0006615882389F26D2F7C2FC8010E94B912E6
:100CF000882351F26D2F7C2FC8010E94CB128823CC
:100D000019F26D2F7C2FC8010E94E412BECF21E0A2
:100D100030E0A90102C0440F551F8A95E2F7CA01CD
:100D2000DDC3CF93C82F81E090E00C2E02C0880F66
:100D3000991F0A94E2F70E94900F8C2FE8DFCF9161
:100D4000089581E00895FDCF0895FBCF0895CF93D6
:100D5000C82F79D38C2FF7DF8C2FF7DFCF91089531
:100D600081E0F5DF0C94C92A80E0F1DF0C94ED2AD4
:100D70001BDF0E94A2290E94CD1C55D081E00C945B
:100D8000761E53D080E00E94761E0FDF0C94A629B9
:100D90009C01892F99270097E9F09C0188E0A9011F
:100DA00074E0569547957A95E1F74115510511F094
:100DB0008C5F9A01A901569547955695479541151F
:100DC000510511F08E5F9A0136952795232B09F076
:100DD0008F5F089580E0E3CF829594E0899F900132
:100DE00011242C7C869586958373282B30E0C901CD
:100DF000880F991F8A7A359527952575822B089536
:100E000081E008950895CF93DF93D82FF9DFC82F9D
:100E1000882311F08D2FF6DF8C2FDF91CF9108956D
:100E20000895F1CF089580E0FCCF0E949226F9CF7B
:100E3000CF930E949226C82F809150028C17F1F018
:100E4000C09350020E94882A60935102709352020C
:100E500080935302909354028091060385708530ED
:100E600059F41F92CF938CEC90E09F938F9335DDD4
:100E70000F900F900F900F908C2FD3DFCF9108958C
:100E8000ADE0B0E0E6E4F7E00C9422334887598700
:100E90006A877B878C879D87911117D71F8286E091
:100EA000FE013896DE01119601900D928A95E1F7C8
:100EB0008D8181110CC029813A814B815C816D81CA
:100EC0007E818F814FD62D96E2E00C943E33CE0189
:100ED00001969FDE8111EFCFF6CFFC018481813036
:100EE00019F48081918113C40895662321F00E9432
:100EF00061230C942C240E94B323FBCFCF93C82FE3
:100F0000882389F08CEF8C0F813A78F48C2F0E9423
:100F1000D927882321F08C2F0E949E2861D78C2FFF
:100F20000E9487285DD7CF91089580E28C0F88308A
:100F300040F4C77081E001C0880FCA95EAF7A6D6D1
:100F4000F1CF8BE58C0F833038F42C2F2452330BE8
:100F5000C9010E945B27E7CFE8E5EC0FEB3150F4C5
:100F6000F0E0EE0FFF1FE659FE4F808191810E9455
:100F70008327D9CF83E38C0F8331A8F661E08C2FD0
:100F8000B4DFD1CF882351F19CEF980F913A18F438
:100F90000E949E2825C790E2980F983048F48770E9
:100FA00091E001C0990F8A95EAF7892F75D6F2CFA3
:100FB0009BE5980F933020F490E080E00C945B2741
:100FC00098E5980F9B3120F490E080E00C94832703
:100FD00093E3980F933110F460E087CF08951F9347
:100FE000CF93DF93182FEB0189DF209731F4812F06
:100FF000C9DFDF91CF911F9108958FE99FE001979D
:10100000F1F700C000002197F0CF70E060E0893375
:1010100011F460E570E0E3CF882311F037D6E0C625
:101020000895882311F038D6DBC60895B0E0A0E01B
:10103000ECE1F8E00C941A336C01D62FC72FFC01B9
:101040001581068102950F7017D6E82E8823E9F0E6
:10105000E12E1123D1F08C2F807F803461F080E26B
:101060008D0F8830F0F08C2F807E803221F4D230CA
:10107000C0F00023B1F080918D0382FF12C082E0A6
:10108000D3D6FAD591E0E82EE9268C2F82958F7081
:10109000A82EB12C8C3078F5F501E55CFB4C0C9456
:1010A0000C33E12CF2CF0C2F0F70C07F11F00295A2
:1010B000007F112381F0002349F080E28D0F8830FA
:1010C00010F0D11105C0802FE1D58AD68D2F42C0F6
:1010D000802FEDD5FACF8D2F55DF002361F080E210
:1010E0008D0F883010F0D11103C0802FD5D502C0EC
:1010F000802FE3D575D688E0A81AB10894E0A91628
:10110000B10408F04EC10E9492268BDECDB7DEB747
:10111000EAE00C943633FC2FFF70FF2EC07FC03204
:1011200019F0F29480EFF822DD2341F0D13081F103
:10113000112309F439C00023C9F0C8CF80918D0371
:1011400082FD10C0112341F0FF2019F08F2D9ED594
:1011500047D680E0D3DECFCF80E014DFFF2059F206
:101160008F2DC4CF112359F0011103C08F2D54DFEF
:10117000C2CF013009F0BFCF8F2DBBD5BCCF01113D
:10118000BACF8F2D4EDF8F2DBFD58F2DA4D5B3CFE6
:10119000112321F0063008F0AECFE8CF053008F07B
:1011A000AACF8F2D3EDFA7CF0023D9F3D93349F43F
:1011B0002FEF87EE93E0215080409040E1F700C090
:1011C00000008D2FDFDE97CF8C2F8695869583705C
:1011D00069F0813009F08FCF8D2F9C2F9370111102
:1011E00002C080E090E00E94832785CF8D2F9C2F46
:1011F0009370111102C080E090E00E945B277BCFCA
:10120000612F8D2F72DE77CF8C2F837089F51111AE
:1012100072CF4D2F429546954770440F440F2D2FA6
:101220002F7030E0042E02C0220F331F0A94E2F721
:1012300090E080E0D4FF09C08FE090E002C0880F0A
:10124000991F4A95E2F780959095C695C695C3700B
:10125000822B932BC23041F0C33041F0C13011F0EA
:1012600046D149CF3DD147CF49D145CF37D143CFE3
:101270008695112311F08C2F8170882309F43BCFC0
:101280004D2F429546954770440F440F2D2F2F70D8
:1012900030E0042E02C0220F331F0A94E2F790E0E0
:1012A00080E0D4FF09C08FE090E002C0880F991F52
:1012B0004A95E2F780959095C695C695C370822BA6
:1012C000932BC23041F0C33041F0C13011F06AD1EC
:1012D00012CF61D110CF6DD10ECF1DD10CCFCF70F9
:1012E000112321F08C2F2BD18D2F41CF8D2F99DE03
:1012F0008C2F33D100CFD23F39F160F4D03FB9F019
:10130000D13F81F0112309F43CC00111DFCE8C2FB5
:101310008F711EC0D33FF1F0D43FA1F780918D03B0
:1013200082FD20C08C2F8F71112319F311C011235E
:1013300039F0053008F0DFCE8C2F8F711ED1DBCE57
:10134000063008F0D8CEF8CF8C2F8F711111D1CF85
:10135000F6D0D1CE112321F08C2F8F71E6D0CBCED9
:10136000E1D0C9CE112329F063E08C2F8F7145D5D0
:10137000C2CE81E059D5023008F4BDCE82E054D50A
:10138000BACE002359F0D93309F01BCFEFEFF7EEB7
:1013900023E0E150F0402040E1F711CF8C2F8F7116
:1013A000A8CFEE2009F4B2CE63D480FDAFCEF60113
:1013B000158258D4C4D0C60117D054D4CED0A6CEEE
:1013C0000F931F93CF93DF93EC01688179818D8117
:1013D000A9D18C01F5D081D0B801CE0127DEDF91F3
:1013E000CF911F910F910895CF93DF93EC018C81E2
:1013F000882381F0CE013ADC81110FC03DD48823CF
:1014000049F08D81882331F080918D0382FF02C0E5
:1014100082E00AD5DF91CF910895CE01D1DFCE01D0
:1014200010DCF8CF90E080E00E945B2790E080E045
:101430000E9483274AD4D4D40E94DE240C942C2406
:101440000E94B528EFCF30D4FBCF282F92959F7004
:10145000963091F060F4925F9F70923030F481E0AA
:10146000203F81F030F4283E30F080E008959A5F0C
:10147000F3CF243FD1F7089581E0283EE0F3213FE8
:10148000A1F7F9CF0895FC018481882321F08081A0
:1014900091813DD1DACF80E00895A6E0B0E0E3E5A8
:1014A000FAE00C9422332696E2E00C943E33A7E057
:1014B000B0E0EDE5FAE00C9422332796E2E00C94DC
:1014C0003E330895FECF0895FDCF0895FADFFCDF87
:1014D000909361028093600208950895F7CF089574
:1014E0002091600230916102822B932BEFCF2091EB
:1014F00060023091610282239323E8CF2091600241
:101500003091610282279327E1CFDBCF0895FDCF91
:101510000895D7CF0895FDDFFADF90935F0280939F
:101520005E02089590E080E0F6CF21E030E0A9016E
:1015300002C0440F551F8A95E2F7CA01ECCF21E0A3
:1015400030E002C0220F331F8A95E2F780915E02DD
:1015500090915F02822B932BDECF21E030E002C01E
:10156000220F331F8A95E2F72095309580915E0215
:1015700090915F0282239323CECF21E030E002C01E
:10158000220F331F8A95E2F780915E0290915F02ED
:1015900082279327C0CF20915E0230915F02822B79
:1015A000932BB9CF20915E0230915F028223932367
:1015B000B2CF20915E0230915F0282279327ABCF9A
:1015C00008959B01677091E001C0990F6A95EAF751
:1015D00063E0369527956A95E1F7220F331F220FB6
:1015E000331FFA01E20FF31F50E040E0682F70E074
:1015F0008191DF0111979B01042E02C0369527953A
:101600000A94E2F7217021952827292328272C9373
:101610004F5F5F4F4430510559F708959C01982F53
:10162000977083E0369527958A95E1F7220F331F4F
:10163000220F331FFB01E20FF31F50E040E080E078
:10164000219130E0092E02C0369527950A94E2F7E1
:1016500021703327042E01C0220F0A94EAF7822B4F
:101660004F5F5F4F4430510559F70895282F862F5B
:10167000943058F4243048F434E0939FB00111249E
:10168000620F711D46E552E09CCF0895943060F4DE
:10169000843050F444E0949F9001112466E572E098
:1016A000820F932F911DBACF80E00895B0E0A0E0A3
:1016B000ECE5FBE00C941B338C01E0905E02F090B3
:1016C0005F028091600290916102E82AF92ACFE0DE
:1016D000D0E0CC24C394D12CBC2EC6010C2E02C069
:1016E000880F991F0A94E2F78E219F21892B49F4D4
:1016F000219790F7B12C8B2DCDB7DEB7E9E00C9494
:101700003733B8018C2F40D6019791F3F4CFCF93A4
:10171000DF93D82FC92FCADF6D2F7C2F35D6DF91ED
:10172000CF9108951F93CF93DF93162FD72F9091CA
:101730005502992339F0862F972FE9DFDF91CF915A
:101740001F910895882369F0862F972FAFDFC82F48
:10175000682F812F9D2F8ADF612F7D2F8C2F14D62C
:10176000EDCF862F972F92DFC82FF6CF1F93CF9301
:10177000DF93E091620217E0809163028E1304C050
:10178000DF91CF911F910895CE2FD0E01E9FF001E1
:101790001124EC59FD4F20813181428153816481B4
:1017A0007581868184DEFE013196E770E5CF209158
:1017B0009C0230919D0240919E0250919F02609147
:1017C000A0027091A1028091A20271CECF93DF930B
:1017D0008091A202807F09F04BC08091A1028823F2
:1017E00009F446C0E091620250916302C0919D02EB
:1017F000D0919C0260919E0270919F0247E05E171B
:10180000B9F18E2F90E0E49FF0011124EC59FD4FC7
:101810002481222381F1489FF001499FF00D11247A
:10182000DF01AC59BD4F11962C9111972C1323C099
:101830002C912D1320C015962C91159721111BC0AA
:1018400012962D913C91261B370B283C310598F4BC
:101850008091A2028F7080618093A202E659FD4FB1
:1018600080818F70806180838CE992E0BDDD7EDFB6
:10187000DF91CF910895FC013196E770C0CF982F8A
:10188000E09162024091630257E0E41302C080E0FD
:1018900008952E2F30E05E9FF0011124EC59FD4F8A
:1018A0008181681306C08081981303C085818111EE
:1018B000EFCFF9013196E770E8CFADE0B0E0E3E6B5
:1018C000FCE00C9418338C0186E0F801DE011896D8
:1018D00001900D928A95E1F7F8018481E5809CE9F9
:1018E000A92E92E0B92E9091A00291111AC08823DE
:1018F000A9F0EE2089F0C801C6DDF82E882361F03A
:1019000087E0F801D50101900D928A95E1F7C501B4
:10191000E4DA5CDF4CDF59C0C80166DDFF24F394D4
:1019200054C0C080D18082809380F090A102209129
:101930009E0230919F02A401421B530BFF2009F429
:10194000CCC0483C510508F09CC0882309F43DC038
:1019500090919D028091A202282F207F09F056C00D
:10196000D91214C090919C02C91210C0E11048C055
:101970008F7080618093A2021ADF8CE992E034DDDF
:101980008091A202F8018683F12C1FC0E11038C0BB
:101990006D2D8C2D74DF6D2D8C2D71DFE82E811156
:1019A000F3CFC886D98688859985B1DE292F2295FF
:1019B0002F70903478F49F702230A0F09923B1F00A
:1019C000F8019681907F91F4FE2C8F2D2D96ECE0FE
:1019D0000C9434332A5F2F70223060F0C80104DD8C
:1019E000EF2CF2CF992311F0882371F3805E8830B9
:1019F00058F3F4CF803F40F3815F833028F3EECF7C
:101A00008091A20281608093A202BECFD91212C03F
:101A100090919C02C9120EC0E1100CC08683C801CF
:101A2000E3DC87E0F801ACE9B2E001900D928A9521
:101A3000E1F770CFC80127DD882309F46DCFEE20D0
:101A400009F46ACF8091A202803280F020919C023A
:101A500030919D023A8329839C828B829091A002CF
:101A60009D831E828F83CE010196BEDC87E0F80144
:101A7000ACE9B2E001900D928A95E1F7A7DE97DE1E
:101A80004DCF9091A202292F207F89F4682D9B864B
:101A90008A86A6017B859E2D00DD8CE992E0A4DC80
:101AA00087E0F50111928A95E9F781DE6DCF8823F1
:101AB00009F48BCF80919D028D11BCCF80919C0247
:101AC000C812B8CFE110B6CF9683C8018DDC87E08D
:101AD000F50111928A95E9F778CF483C5105A8F5B0
:101AE000882309F41BCFFE2CEE2009F415CF80913A
:101AF0009D028D111EC080919C02C8121AC0809157
:101B0000A20280FD0DC0982F907F51F08683903FF8
:101B100009F485CF982F907F905F8F70892B7ECFAF
:101B200087E0F801ACE9B2E001900D928A95E1F707
:101B30004CCFC801A8DC811199CF8091A2028160AD
:101B40008093A202C80150DC40CF682D9B868A8614
:101B5000A6017B859E2DA1DC87E0F50111928A9577
:101B6000E9F7D8CEAEE0B0E0E8EBFDE00C9421332D
:101B7000288739874A875B876C877D878E87CE0168
:101B800008969BDE8823A9F06C85662339F02885AA
:101B900039854A855B857D858E8589DC17E0809156
:101BA00062029091630289133CC02E96E3E00C948C
:101BB0003D3387E0FE013896DE01119601900D92CB
:101BC0008A95E1F74C85442349F32091630230E084
:101BD000C90101968770992750916202581719061A
:101BE00099F04D8397E0929FD001939FB00D1124FF
:101BF000AC59BD4FFE01319601900D929A95E1F7D7
:101C000080936302B3DDCACF1EDC10926302109290
:101C1000620287E0ECE9F2E0DF011D928A95E9F7C4
:101C2000BDCF819FC00111248C599D4F46DE882372
:101C300009F4BBCFE09162021E9FF0011124EC5920
:101C4000FD4F20813181428153816481758186817C
:101C50002EDC8091620290E0019687709927809334
:101C600062029DCF8091CB028695869586950895D8
:101C70008091CB02877008959091CB02977081E09C
:101C800009F480E008958091F70208959091F70299
:101C9000982B9093F7020895982F90958091F702D2
:101CA00089238093F70208951092F7020895909186
:101CB000F602982B9093F6020895982F90958091B4
:101CC000F60289238093F60208951092F602089591
:101CD0000895FECF08959091CC02292F282329F052
:101CE000809589238093CC02F4CF08950895FECF88
:101CF00008959091CD02292F2823281721F0982BA1
:101D00009093CD02F4CF08959091CD02292F2823EE
:101D100029F0809589238093CD02E9CF08958091A1
:101D2000CD02882321F01092CD0280E0E0CF08950B
:101D3000CF93C091F7028091F602C82B8091CD021B
:101D4000882329F0C82B0E94B8278111E8DF8C2F47
:101D5000CF910895CF93DF93C0913B01D0913C0187
:101D6000E7DF8883C0913B01D0913C0148E050E01F
:101D700063EC72E0CE010E94BA33892B59F088E0FF
:101D8000FE01A3ECB2E001900D928A95E1F7CE013D
:101D90000E94A126DF91CF910895CF93DF93C09148
:101DA0003901D0913A01C4DF8983C0913901D091C2
:101DB0003A0140E250E063EA72E0CE010E94BA3399
:101DC000892B59F080E2FE01A3EAB2E001900D9266
:101DD0008A95E1F7CE010E94F126DF91CF91089517
:101DE0000E948B26882329F080918C0387FF01C0F5
:101DF000D4CFB0CF0895FECF089590918D0392FF78
:101E00000EC098E0899F90011124622B6093CB0251
:101E100096DB8091CB02869586958695ECCF8FCB0D
:101E20001092CB0280E0E7CF9091CB02809589237E
:101E30008093CB02282F277059F4891749F090918D
:101E40008D0392FF05C086958695869586DBE8CF43
:101E50000895CF93C82F80918D0382FB992790F925
:101E60009C17C9F0C0FB82F980938D038CE893E046
:101E70005BD082E0D9DF8091060380FF0CC01F9207
:101E8000CF938CED90E09F938F930E946D040F9001
:101E90000F900F900F90CF91089580918D0382FB4A
:101EA000882780F991E08927D4CF81E0D2CF80E0E4
:101EB000D0CF60E070E0CB0116C460E070E0CB01F1
:101EC0000CD4F7CFA3E0B0E0E8E6FFE00C942233B7
:101ED000B1D3BCD31B82CE010396CFD381E090E077
:101EE0009093610280936002D4D31A8219828A810E
:101EF00084618A83CE010196DDD30E940A18DDDF5A
:101F00000E9403182396E2E00C943E33DBCF089541
:101F1000A3C3089590C30895A5C30895B4C30895B5
:101F2000B8C30895BBC30895C5C30895CAC308952F
:101F3000CEC30895DEC30895A6E0B0E0E2EAFFE074
:101F40000C9420330E947C2A8C018091F80290919D
:101F5000F9028017910781F019821A820E947C2A67
:101F6000682F49815A81792F80E090E00E944007D4
:101F70001093F9020093F8022696E4E00C943C33A7
:101F80000E94882A609302037093030380930403E2
:101F9000909305036093FE027093FF028093000309
:101FA0009093010308950E94882A6093020370931E
:101FB000030380930403909305036093FA027093E4
:101FC000FB028093FC029093FD020895089508950A
:101FD000FDCF08950895FEDFFBCF0895FECF08954D
:101FE0000895FEDFFBCF80ED9CE21AD5F0DFF3CF42
:101FF00081E00895FDCF0895FBCF089508950895D9
:102000000895FCDFFCDFFCCF85DF811101C07EDF9E
:1020100086E093E081DF8CE893E084DF0E94DA21A0
:102020007DDF5CDA80915E0290915F0270CA0E944F
:10203000732A0E9413204ED4E7DF0E9489260E9453
:1020400010070E94101ECDCF1F93CF93DF93C82F90
:10205000D62F142F0E94C419412F6D2F8C2F0E9450
:10206000DC29DF91CF911F910895A6E0B0E0EBE36A
:10207000F0E10C941933BEDF811111C05DDF0E94C5
:102080008A260E94CD1C0E94912081118CDF0E9423
:10209000FF240E9418072696EBE00C9435332BD4CE
:1020A00088E8C82E83E0D82E760110E0F701019170
:1020B0007F01812F29D31F5F143009F446C0081710
:1020C000A9F38091060381FD25D396DF982E10E0B9
:1020D000812F1AD3082FF60191916F01891781F191
:1020E000A82EA926F12CEE24E3948A2D8E2101F14D
:1020F000BB24B394902F9E2109F4B12C9920A1F018
:102100006F2D812F0E94C82981110EC0F9821A8378
:102110000E947C2A682F8B839C8349815A81792F66
:1021200081E09B2D0E9440074B2D6F2D812F8CDF6E
:10213000F394EE0CF4E0FF12D8CFF6013197008350
:102140001F5F143029F61CDF9ACF0813BACF96CF41
:102150001F93CF93DF931AD1EC018115924508F0BC
:102160005CC0C11580E5D80708F0D9C0C03ED105D4
:1021700038F5CD3CD10508F0ABC0C83AD10580F4A4
:10218000C53AD10508F0A1C0C130D10509F440C05D
:10219000CE010497813A9105D8F1D0E0C0E038C073
:1021A000CE01885A91094B97C0F7C85AD0E0CC0F9E
:1021B000DD1FC056DE4F0990D881C02DD46428C0E1
:1021C000C11590E4D907E0F4C11520E2D20708F068
:1021D000C0C0C83ED105E0F0CE019A9581159F415F
:1021E000E0F68D2F75D1182FCE019927CFD0C12FB2
:1021F000D0E0DC2FCC27CC27DF71C82BD92B08C02F
:10220000CE019927C3D0CC27DF70C82BD92BD06A39
:10221000CE01DF91CF911F910895C03882E5D80794
:10222000B8F5C03692E5D90708F05BC0C03422E5A6
:10223000D207C8F4C03282E5D80708F04BC02C2F73
:102240002695269590E2299F900111248C2F83706A
:10225000C1E0D0E002C0CC0FDD1F8A95E2F7C22BAF
:10226000D32BDD68D5CF2C2F26952695277080E2BD
:10227000289F900111248C2F8370C1E0D0E002C010
:10228000CC0FDD1F8A95E2F7C22BD32BDC68C0CFC1
:10229000C03C92E5D90760F48C2F8F71C03AD245CB
:1022A000A8F5C82FD0E0DC2FCC27C46FD06AB0CF00
:1022B000CE01805C9245809708F06FCFDC2FCC2751
:1022C000CC27DF71C06FD06AA3CFA497D064A0CF12
:1022D000D0659ECFCF71D0E0DC2FCC27C16FD06A04
:1022E00097CF2C2F26952695277080E2289F900166
:1022F00011248C2F8370C1E0D0E002C0CC0FDD1F11
:102300008A95E2F7C22BD32BDA6882CFE1D0C82FAF
:10231000D0E0DC2FCC27CC27DF71D06279CF8C2F97
:102320008F71D6D055E0D695C7955A95E1F7CF7005
:10233000D0E0DC2FCC27282F30E084FF06C044E01B
:10234000220F331F4A95E1F73327C22BD32BD069D5
:102350005FCF8D2F8F71BCD0182FCE01992716D04B
:10236000C12FD0E0DC2FCC27CC27DF71C82BD92B95
:10237000D4CF462F672F743020F4443010F40C94DF
:10238000C40580E090E00895F4DFE2CE803E910540
:10239000C1F1C8F48133910509F47DC048F4893254
:1023A000910509F46DC08A32910509F47BC0089546
:1023B00089339105D1F082389105B9F085339105C3
:1023C00009F459C00895843E9105C1F138F4823E64
:1023D000910521F1833E910531F10895863E9105E5
:1023E000C1F1873E9105E1F1089520918C0323709E
:1023F00009F065C020918D0323FF14C089E290E0AD
:10240000089520918C0320FD43C030918D0330FF4F
:1024100009C024FF4EC090E080E0089520918C0315
:1024200022FDF7CF089520918C0322FD45C0309105
:102430008D0330FD44C024FFF5CFEDCF20918D03F7
:1024400021FFF0CF80918C0384FDE5CF87EE90E0F3
:10245000089520918C0323FFE5CF24FDDCCFF6CF38
:1024600020918C0323FD2EC030918D0331FFE3CFEB
:1024700084EE90E0089520918C0325FFD3CFBECF4A
:1024800020918C0325FD21C020918D0323FFCACF0D
:1024900089E390E0C7CF20918C0326FFC3CF8AE267
:1024A00090E0089520918C0326FFBCCF81E390E05B
:1024B000089583EE90E0089582EE90E0089580EE16
:1024C00090E0089586EE90E0089585E390E0089509
:1024D00090918C0392FF10C041E0282F247124308A
:1024E00009F040E031E0282F2871283009F030E071
:1024F000431711F02CE0822793FF10C041E0282FF2
:102500002471243109F040E031E0282F287128316E
:1025100009F030E0431711F02CE0822730918D0351
:1025200030FF10C051E0282F2171213009F050E018
:1025300041E0282F2871283009F040E0541711F0AD
:1025400029E0822731FF10C041E0282F217121317D
:1025500009F040E031E0282F2871283109F030E0FF
:10256000431711F029E0822794FF02C083FD877E84
:102570000895CF939C01FB01805E9245C1E0809756
:1025800038F4C581C11104C0822F8F710E94910659
:102590008C2FCF9108959C01FB018581882391F0B8
:1025A0002B35FCE73F0761F02C359CE7390729F014
:1025B0002A353C4741F479DC01C06FDC80E00895A6
:1025C00076DCFCCF81E008959C01FB0185818823A6
:1025D00079F12230FCE73F0789F040F42115ECE760
:1025E0003E0741F021303C4701F1089523303C473C
:1025F000D9F008950E94B00680E0089590910603F6
:10260000892F8E7F90FF81608093060380FF09C031
:1026100083E091E09F938F930E946D040F900F9041
:10262000EBCF81EF90E0F6CF73DC0E94B406E4CFED
:1026300081E00895089590E080E00E94E8339C01D5
:1026400081E0233E3E4F09F080E0089563EE7EEF87
:1026500090E080E00C9416346FEF7FEF90E080E024
:102660000C941634CF93DF93EC0182E090E00E944B
:10267000E0338883DF91CF910895FC01608182E08F
:1026800090E00C94FC3383E090E00E94E03390E013
:102690000895682F83E090E00C94FC33CF93DF9390
:1026A000EC0184E090E00E94E83399838883DF9115
:1026B000CF910895FC016081718184E090E00C94D9
:1026C000163448E050E067E170E00C94D03348E005
:1026D00050E067E170E00C94ED33AB01BC018FE09A
:1026E00090E00C940E34AB01BC0183E190E00C94BB
:1026F0000E34682F8EE090E00C94FC330895FECFEA
:1027000008950895FECF0895E82FF0E0EE56FC4FAF
:1027100080810895B0E0A0E0E0E9F3E10C94183383
:1027200083E291E09F938F930E946D0482E9E82EEB
:1027300083E0F82E0F900F90912C812C9EE1A92E12
:1027400091E0B92E2BE1C22E21E0D22E06E111E05C
:10275000C4E1D1E09F928F92BF92AF920E946D042C
:10276000DF92CF920E946D04F70181917F010E9458
:10277000EC061F928F931F930F930E946D04DF93BB
:10278000CF930E946D049FEF891A990AEDB7FEB7A7
:102790003C960FB6F894FEBF0FBEEDBFF4E08F1667
:1027A0009104C1F6CDB7DEB7ECE00C94343380EA87
:1027B0008A95F1F7089500C00895F9CF0895F89427
:1027C000E82FE295EF70F0E041A18F7021E030E05A
:1027D000B90102C0660F771F8A95E2F7CB01962FE9
:1027E0009095942391A392A1892B82A37894089524
:1027F00084E9E5DF87E9E3DF84E3E1DF85E3DFDF29
:1028000087E6DDDF86E6DBDF86E9D9DF84EFD7CF39
:10281000B0E0A0E0EEE0F4E10C941C337C01162F54
:10282000042FC62FD0E0CA52DE4F48814F3F09F433
:1028300048C0F894E42FE295EF70F0E081A14F706A
:1028400021E030E001C0220F4A95EAF7822B81A3F4
:1028500082A12095282322A37894ADDF8AEDC82E8B
:1028600081E0D82EF701A7014C5F5F4FF12CE02EDD
:10287000E094D6019D916D0181919F012150310914
:102880009F3F21F1692F62956F7070E0DB01909698
:102890006C9170E09F7002C0759567959A95E2F70C
:1028A00060FD14C0802BD9018C93FF24F394E417AE
:1028B000F507F9F688818F3F09F081DF6F2D812FB1
:1028C0007CDFCDB7DEB7E8E00C9438338E21D90138
:1028D0008C93EDCF8DDF84E0E2E9F3E0DF01982F08
:1028E0001D929A95E9F7EEE8F3E0DF011D928A95D3
:1028F000E9F73ED004CFA4E0B0E0E1E8F4E10C94C5
:1029000020331A8219821C821B8210E001E0402FC2
:10291000612FCE0101967CDF1F5F000F1430B9F7E5
:1029200044E050E0BE016F5F7F4F8EE893E00E946D
:10293000BA339C0141E0892B09F440E0232B61F07C
:1029400089819A81AB81BC8180938E0390938F03A0
:10295000A0939003B093910362E973E08EE893E053
:1029600008D0182FCFDE812F2496E4E00C943C335E
:102970000895EF92FF920F931F93CF93DF93F82E5A
:10298000092F162FD72FC42F442379F081E080938D
:1029900009030E947C2A909308038093070380E038
:1029A000CDB7DEB7E6E00C943A33E0900903EE20B1
:1029B000B1F380910703909108030E94ED290597D8
:1029C00070F344E050E06F2D702F812F9D2F0E94F7
:1029D000BA33892B51F084E0EF2DF02FA12FBD2FBA
:1029E00001900D928A95E1F7CE2D109209038C2F5C
:1029F000D7CF3BCB08950E94162A0E94322DF3DADE
:102A00000E944A2D14DB0E94532D0E94562DF1DFA7
:102A10000E94782D0E944A2B0E94762BF2DAF5CF85
:102A200090931F0280931E0208950F931F93CF93DC
:102A30008C01FB01C581CC2309F446C024D98272E4
:102A4000F801E052F847EB30F10538F4E95BFB4C54
:102A50000C940C330E94A21EC0E08C2FCF911F91CA
:102A60000F910895882329F00E94111FF5CF882324
:102A7000D9F30E94041FF0CF882329F00E945E1F23
:102A8000EBCF8823D9F30E94531FE6CF882329F088
:102A90000E947A1FE1CF8823D9F30E946C1FDCCFFC
:102AA000882329F00E94961FD7CF8823D9F30E944C
:102AB000881FD2CF882329F00E94D11FCDCF882331
:102AC000D9F30E94C61FC8CFC1E0C7CF1F93CF93D1
:102AD000DF93EC01FB01158111110FC0D4D8827274
:102AE000FE01E054F847EF30F10508F04DC0EE5A12
:102AF000FB4C0C940C330E94B11E812FDF91CF91BF
:102B00001F9108950E94C01EF8CF0E94A21EF5CF0B
:102B1000882329F00E94111FF0CF8823D9F30E9447
:102B2000041FEBCF882329F00E945E1FE6CF882385
:102B3000D9F30E94531FE1CF882329F00E947A1F06
:102B4000DCCF8823D9F30E946C1FD7CF882329F0CC
:102B50000E94961FD2CF8823D9F30E94881FCDCF21
:102B6000882329F00E94D11FC8CF8823D9F30E945F
:102B7000C61FC3CF882329F00E940C20BECF882314
:102B8000D9F30E940A20B9CF11E0B7CFB0E0A0E09E
:102B9000ECECF5E10C941A33D62FC72F982F711156
:102BA0000FC0442329F0E82FF0E0E75BFC4F94913D
:102BB000692F792F892FCDB7DEB7EAE00C94363331
:102BC000272F30E0E82FF0E0442321F0E75BFC4FB3
:102BD000E491F0E066E0D69F80011124EE24EA94AF
:102BE000F12CC801B7010E94A732AB018D2F90E0F4
:102BF000880F991FA5E5A49FB001A59F700D112412
:102C0000861B970B682F660F680FC701821B930BFB
:102C10008E9FD0018F9FB00D9E9FB00D11247B2FF2
:102C20006C9FE0011124CD2FDD27C7018C1B9D0B6C
:102C30008E9FE0018F9FD00D9E9FD00D11248D2F70
:102C40005701A61AB108A29E6001A39ED00CB29EA5
:102C5000D00C1124CD2CDD24EC18FD08EE9E900143
:102C6000EF9E300DFE9E300D11249E2F43305105F6
:102C7000C1F00C3F63E0160760F441305105A9F044
:102C800042305105B1F00F3F110548F48B2F732FDF
:102C900006C04430510581F046305105B9F3692F23
:102CA0008ACF9B2F7D2F8E2FFACF9D2F8B2F7E2F9C
:102CB000F6CF832F9B2FFBCF8E2F932FF0CF41E0AA
:102CC00065CF9C0190E080E0269F020E811D369F1B
:102CD000800D911D1124830F911D08959C01823058
:102CE000910508F408959FEF213E8EE1380740F4E6
:102CF000C90145E0969587954A95E1F798E0980FC8
:102D000061E0E62FE90FFF27FF1FAF0155954795BB
:102D1000842F449FF001459FF00DF00D11242E17D4
:102D20003F0738F49FEF940F961758F78FEF860FF1
:102D300008954F3FE9F361E0640FF6CFEF92FF9201
:102D40000F93282FC70135E0039F800D911D11249B
:102D50008F3F910519F010F08FEF90E08095382F9C
:102D6000230F08F42FEF822F0F91FF90EF9008951B
:102D7000EF92FF920F931F93E00EF11C890137FF32
:102D800003C011950195110924E0000F111F2A9528
:102D9000E1F70F3F110519F014F00FEF10E09A0161
:102DA00057FF03C031952195310994E0220F331F5D
:102DB0009A95E1F7201731070CF489010E0D1F1DBC
:102DC0000F3F110519F010F00FEF10E00095282FBC
:102DD000200F08F42FEF822F1F910F91FF90EF909B
:102DE0000895EF92FF920F93972FFA01B90197017F
:102DF000093430F4201B31092F3F310519F010F050
:102E00002FEF30E03896719740F0AB01485F5F4F8D
:102E10004131510510F02FEF30E02095382F320F5F
:102E200008F43FEF77FF02C06D5F7F4F75956795A0
:102E30007595679580919703680F792F832F0F9170
:102E4000FF90EF900895EF92FF920F93282FC70104
:102E5000801B91098F3F910519F010F08FEF90E0E2
:102E6000382F3095230F08F42FEF680F822F0F9122
:102E7000FF90EF900895EF92FF920F93282FC701D4
:102E8000801B91098F3F910519F010F08FEF90E0B2
:102E90008095382F230F08F42FEF822F0F91FF908A
:102EA000EF90089590910C03982B90930C03089544
:102EB0001F93182F9A014F3F510519F010F02FEF73
:102EC00030E02095219F020E20E0211D1124822F49
:102ED0001F9108959A014F3F510519F010F02FEFFF
:102EE00030E0209530E4239F020E20E0211D1124C4
:102EF000620F0895E4CE0895B0E0A0E0E2E8F7E1C3
:102F00000C941533782E662E862F90E024E0729E66
:102F100080011124F801EC5FFE4FE80FF91FC0811A
:102F2000CF3FA1F1B12CA12C812CD0E09E01220F2A
:102F3000331FA9014C5E5E4F6A01E901CB5EDE4F93
:102F4000055C1C4F080F191F7501912C89E0582E44
:102F5000F701EC5FFE4F20812F3F59F078101BC026
:102F6000691019C0F801208130E2230F08F42FEF17
:102F7000208393947FEFE71AF70A84E09812E8CF52
:102F80008394E4E0AE0EB11C8812DECFCDB7DEB77D
:102F9000EFE00C94313330E0F6014081F901EE0F9F
:102FA000FF1FEC5EFE4F8081481B550B8881220F6E
:102FB000331FF901EC5FFE4F9189682F691B770B76
:102FC0009B01449FB001459F700D700D1124229FFD
:102FD000C001239F900D900D1124860F971F7EDE58
:102FE000382F8A3030F6252D231B08F420E0F70116
:102FF000E55CFC4F213108F020E13081320F08F40C
:103000003FEF3083B6CF86E993E00E94980F10928D
:103010000C0308958091060380FF08C085E293E0C9
:103020009F938F930E946D040F900F9089E080937F
:10303000960380915B0190915C01A0915D0180936A
:10304000970390939803A09399038FE780939A0333
:103050008FEF80939B0386E993E00E94980F109274
:103060000C0308958091060380FF89C08BE093E0F4
:103070009F938F930E946D04809106030F900F9091
:1030800080FF7DC08091960383701F928F938CEE9A
:1030900092E09F938F930E946D04809106030F909E
:1030A0000F900F900F9080FF6AC0809196038695D5
:1030B00086951F928F938FEC92E09F938F930E943F
:1030C0006D04809106030F900F900F900F9080FF7A
:1030D00056C0809197031F928F9381EB92E09F934C
:1030E0008F930E946D04809106030F900F900F90B4
:1030F0000F9080FF44C0809198031F928F9383E9C3
:1031000092E09F938F930E946D04809106030F902D
:103110000F900F900F9080FF32C0809199031F9203
:103120008F9385E792E09F938F930E946D04809127
:1031300006030F900F900F900F9080FF20C080919A
:103140009A031F928F9387E592E09F938F930E943B
:103150006D04809106030F900F900F900F9080FFE9
:103160000EC080919B031F928F9389E392E09F93FF
:103170008F930E946D040F900F900F900F90089501
:1031800080E008950F931F93CF93DF93C82FD62F1E
:103190008A01F6DF94E0C99F900111242C5F3E4F15
:1031A0002D0F311DF90190819F3F29F0F801E80FA3
:1031B000F11D90838F5FDF91CF911F910F91089543
:1031C000E091EF01F091F0010995089508951F93A2
:1031D000CF93DF93C62FD42F122FF8DF97FD08C0AF
:1031E000E091EB01F091EC01212F4D2F6C2F09950F
:1031F000DF91CF911F910895E091ED01F091EE01E3
:1032000009950895A8E0B0E0E8E0F9E10C941533E1
:10321000FC011091990323E0129F70011124F69490
:10322000E794F694E7945E2C812E912C8FEF90E03A
:10323000B4010E94BB32762E8281882369F040E07F
:1032400060E080E0D9DFEBE3F3E080E1DF011D9295
:103250008A95E9F710920B0380910A038F5F8093A0
:103260000A038BE3A82E83E0B82E612C8E189F08EA
:10327000650100E080910B03802B09F069C00E947A
:10328000AC33853595400CF063C0F5011083AE0179
:103290004F5F5F4F662D802F75DF8823C1F0F601E9
:1032A0002081E981F0E0521608F061C030E02E196B
:1032B0003F092E9DC0012F9D900D3E9D900D112424
:1032C000B4010E94A732262F412FCF0180DF0F5F6C
:1032D000F4E0CF0ED11C043069F663942FEFA21AEC
:1032E000B20A84E06812C4CF80910A03871102C039
:1032F00010920A0380910B038F5F8D3108F441C057
:1033000010920B0323E433E083E04FE353E09FEF9D
:10331000910FD901EBE3F3E0833021F464851613B8
:1033200001C094876C91611720F09C9314961C93B4
:103330001497319611964E175F0771F781502450FC
:1033400031098111E6CF80E02896EFE00C9431330B
:10335000D6018C91882309F49ACF811708F097CF72
:1033600090910A03971193CF81508C9390CF129F25
:10337000C0011124B7010E94A732462F20E060E06F
:10338000A4CF80930B03DFCFA8E0B0E0EAECF9E133
:103390000C941A33E82EB62EA42E0E94F80F882320
:1033A00009F455C0F12CAA2039F0AE014F5F5F4FF0
:1033B0006B2D8E2DE7DEF82E0F2D10E080910D0382
:1033C000800F912F911D09976CF188E090E06C01BE
:1033D000C01AD10AB801625F7C4FA6018EE093E06B
:1033E0000E94C733B8016A5E7C4FA60186E193E074
:1033F0000E94C733A601440F551FB801660F771FFF
:103400006A5D7C4F86E293E00E94C733B801625E3A
:103410007C4FA6018EE193E00E94C73388E08F19AC
:1034200080930D0310910D03DE01119640E0242FCF
:10343000210FF41210C020930D03AA2041F08091B7
:1034400096038C7F883019F46B2D8E2D55DD2896D0
:10345000EAE00C9436335D91852F90E030E0B901BD
:10346000635F7C4FFC01EE0FFF1FEC5EFE4F00819F
:10347000FB010183880F991FFC01EC5FFE4F8189DE
:10348000FB018187518B220F331FF901E35FFC4F52
:10349000128E118E4F5FCBCF80919E0390919F0330
:1034A000A091A003B091A1032AE0B695A7959795A6
:1034B00087952A95D1F783709927AA27BB27823051
:1034C0009105A105B10571F083309105A105B10504
:1034D00061F040E060E00197A105B10541F464E1CD
:1034E00080E08ACE44E160E0FBCF44E164E184E126
:1034F000F8CF81E00895FDCF08950C94EC04089571
:10350000FADFFBCF982F990F890F93E0980F9D302A
:1035100008F09CE00895AF92BF92DF92EF92FF9285
:103520000F931F93CF93DF938C017B01FC0180816C
:10353000E9DFC82FD92E20919A0331E0230F08F438
:103540002FEF30E050E040E06FEF7FEF80E090E061
:103550000E94F0325901D0E02C2FCD1578F081E097
:10356000FBE0FD1508F480E0DF91CF911F910F91F2
:10357000FF90EF90DF90BF90AF900895FE01EC5F59
:10358000FE4F80A5F80191818923F1F04091A203BB
:103590004150042E000C550B47FF18C0C501609127
:1035A0009A0321E0620F08F46FEF8BDBAC016091AE
:1035B00097037091980380919903F70109959ADC1C
:1035C000472F282FCE0103DE2196C6CFFA01EE55F4
:1035D000FC4F818982130AC0FA01EE0FFF1FEE55DE
:1035E000FC4F818D928D8A159B05C8F2415051097F
:1035F000D3CF68E577E18FCF6AE677E18CCFAAE099
:10360000B0E0E5E0FBE10C9412338C832B014A839C
:103610005B83FB01808176DF9D83F091A203FE83B3
:10362000282F30E03A872987C901880F991FFC01AC
:10363000EC5FFE4F6F01FC818F2F90E09C012F5FAC
:103640003F4F38872F83ED81F985FE1740F081E0E9
:10365000EC3008F080E02A96E2E10C942E33E98504
:10366000FA85EC5FFE4F80A5F20191818923F9F084
:1036700020909703309098032F8138852E553C4F2A
:1036800039013C81398310E029813E812317C0F044
:1036900020919903129F010E10E0111D1124B10118
:1036A000812F28DC472F282F89859A8590DD8985F1
:1036B0009A8501969A87898792E0C90ED11CC3CF5B
:1036C000F30181913F01F601A088A81ABB08818807
:1036D000F3018781881A9908AA9C9001AB9C300D50
:1036E000300D1124889CC001899C900D900D1124EF
:1036F000820F931FF3DA082F60919A0321E0620F83
:1037000008F46FEFF301EE0FFF1FE25AF3408589D3
:103710009689D7DA7C019401A501B101812FEA8154
:10372000FB8109951B01182FF981FF5FF983ACCF4D
:10373000BC012091A20331E0231B08F420E04EE9F4
:1037400056E1822F5CCFBC014EE956E180E057CFB5
:10375000BC012091A20331E0231B08F420E048EBD8
:1037600056E1822F4CCFBC0148EB56E180E047CFB9
:10377000BC012091A20331E0231B08F420E041EFBB
:1037800056E1822F3CCFBC0141EF56E180E037CFBC
:10379000BC012091A20331E0231B08F420E043E2A6
:1037A00057E1822F2CCFBC0143E257E180E027CFC5
:1037B000BC012091A20331E0231B08F420E04BE37D
:1037C00057E1822F1CCFBC014BE357E180E017CFBC
:1037D000B0E0A0E0EEEEFBE10C941C337C01FC01B8
:1037E000808190DEC82F192F609197037091980304
:1037F000809199037FDB062FD72EC82ED0E0C1170A
:1038000048F081E01C3008F080E0CDB7DEB7E8E09A
:103810000C943833FE01EC5FFE4F80A5F7019181D7
:10382000892329F02C2D4D2D602FCE01D0DC21963F
:10383000E6CFB0E0A0E0EFE1FCE10C9417337C01AF
:10384000DC018C915FDE882EB92EF70182818823FE
:1038500059F040E060E080E0CFDCEBE3F3E080E1B2
:10386000DF011D928A95E9F7F7018081811117C068
:1038700080914C0390914D030E94ED299C0181E0C1
:103880002931310508F480E080934B03293131055B
:1038900030F00E947C2A90934D0380934C03A12C1E
:1038A00000E0912C8AEA782E05C082E0891508F4A0
:1038B00055C000E0802F90E0F4E0AF9EE0011124BD
:1038C0009E012C5F3E4F6901C80ED91ED601EC91B6
:1038D000E81508F43BC0EB1508F038C09394F0E00D
:1038E000EC5FFE4F20A5F7013181232309F42EC0A0
:1038F000C55CDC4FC80FD91F1881212F35E5231B6C
:1039000008F420E0672D621B70919803372D310F6A
:1039100008F43FEF40919903232F220F230F2E5FCE
:10392000249F020E20E0211D1124822FE3DA472F6D
:10393000282FD6018C9190E04ADC80914B0388239C
:1039400029F021E0121B08F410E018830F5F043007
:1039500009F0B0CFA39434E0A312A7CF81E09BE09D
:103960009B1508F480E0CDB7DEB7EDE00C9433335F
:1039700081E00895FDCF0895FBCF0895CF93DF93A5
:10398000FC0180818150BEDDEC016D2FF3DF6D2FD6
:103990008C2FF2DFDF91CF9108954F925F926F925B
:1039A0007F928F929F92AF92BF92CF92DF92EF92CF
:1039B000FF92CF93DF9300D000D0CDB7DEB78091D8
:1039C000360390913703A0913803B091390389836E
:1039D0009A83AB83BC83BC01CD010E94F6296B01A5
:1039E0007C010E94882A609336037093370380938A
:1039F000380390933903A0910D03EDE0F3E02A2FF3
:103A000030E088248A94982CA12CB12C8C189D0825
:103A1000AE08BF08A3132EC020930D03A0913A0354
:103A2000A98320913D01223009F4CDC0B0F52111C8
:103A30004AC010923E0160939E0370939F0380934F
:103A4000A0039093A10389E2EDE0F3E0A2EAB3E0E2
:103A500001900D928A95E1F790919603892F8370DA
:103A600019F0892F8695869580933A0381E080939B
:103A70003D0116C0418D528D2A01712C612C841498
:103A80009504A604B70420F421503F5F3296C2CFBC
:103A90004C0D5D1D528F418FF8CF233009F49DC02E
:103AA0000F900F900F900F90DF91CF91FF90EF90BC
:103AB000DF90CF90BF90AF909F908F907F906F904E
:103AC0005F904F90089580914101B981B81328C04B
:103AD0009091960393702091420130E081E092171B
:103AE000130609F480E081708093400180919B036C
:103AF00090913F01981731F080933F0140E060E0E2
:103B000080E07ADB2981203168F4E22FE150EF3048
:103B100008F5F0E0EF59FB4C8EE391E00C940C3388
:103B200081E0E1CF89818F3F09F43BC080E0909133
:103B30003E019F5F90933E01811139C082E08093E6
:103B40003D01809140019981811166C091112DC084
:103B500083E08DCF80914001882349F340E060E00D
:103B600080E04ADBE3CF34DEE2CF63DEE0CF4ADB46
:103B7000DECF3FDDDCCF40DDDACFDADDD8CFE3DDED
:103B8000D6CFE6DDD4CFEFDDD2CFF2DDD0CFFBDD77
:103B9000CECFFEDDCCCF07DECACF0ADEC8CF13DE24
:103BA000C6CF7ADC82E080933D01AADC08C0A981FF
:103BB000AA2309F475CF80913D018230B1F38EE3E1
:103BC00091E0DCDE6DCFB981B09341018091960325
:103BD000837080934201F4DABBCF80910C03882379
:103BE00031F086E993E00E94980F10920C038091C7
:103BF0009E0390919F03A091A003B091A103BC01EB
:103C0000CD010E94F629603171058105910508F406
:103C100047CF10923D0144CF992309F441CFC5CF3E
:103C2000E091E901F091EA0109951092A2038FEF6A
:103C30009FEF9093BC038093BB039093BE0380934C
:103C4000BD039093C0038093BF039093C2038093FE
:103C5000C1039093C4038093C3039093C6038093DE
:103C6000C5039093C8038093C7039093CA038093BE
:103C7000C90310920D03909327038093260390931A
:103C800029038093280390932B0380932A03909316
:103C90002D0380932C0390932F0380932E039093F6
:103CA00031038093300390933303809332039093D6
:103CB00035038093340381E080930C0386E993E01D
:103CC0000E94960F10920C03809196038C7F69F4EA
:103CD0008091060380FF08C084EE91E09F938F934C
:103CE0000E946D040F900F9095D9BCC90895CF9391
:103CF000C82F8091960391E08927809396031092B4
:103D00003D018C2FCFD88091060380FF19C02091F0
:103D1000960323708EED91E0CC2311F080EE91E0BC
:103D20001F922F939F938F938DEA91E09F938F9390
:103D30000E946D040F900F900F900F900F900F90B6
:103D4000CF91089581E0D3CF80919603837011F4D1
:103D500010923D01809196038C7F81608093960341
:103D60000895F2DF81E09EC880919603837011F080
:103D700010923D01809196038C7F80939603089565
:103D8000F3DF81E08FC8CF93C62F90919603937095
:103D900039F1811127C094609093960310923D01F0
:103DA0008C2F80D88091060380FF1AC02091960343
:103DB000269526958EED91E0CC2311F080EE91E0D2
:103DC0001F922F939F938F9383E991E09F938F93FB
:103DD0000E946D040F900F900F900F900F900F9016
:103DE000CF910895803110F09C63D6CF880F880F53
:103DF000982BD2CF682F80919603869586958F5FFA
:103E0000803108F081E0BFCF81E0F4CF682F90913E
:103E10009603969596958FEF890F913009F48FE070
:103E2000B2CF81E0F3CFCF93C22F909196039370DE
:103E300071F1809397036093980340939903822FC5
:103E400031D88091060380FF22C0409199033091C0
:103E50009803209197038EED91E0CC2311F080EE32
:103E600091E01F924F931F923F931F922F939F9326
:103E70008F9380E791E09F938F930E946D048DB79D
:103E80009EB70A960FB6F8949EBF0FBE8DBFCF9116
:103E90000895282FE6E9F3E09181892F90E043818E
:103EA00062810896C0CF81E0F4CF282FE6E9F3E0E5
:103EB0008181438162818850990BB5CF81E0F5CF34
:103EC000282FE6E9F3E0628130E1630F08F46FEF39
:103ED0008181438190E0A7CF81E0F2CF282FE6E9EE
:103EE000F3E0628130E1631B08F460E0818143818B
:103EF00090E099CF81E0F2CF282FE6E9F3E043810B
:103F000030E1430F08F44FEF8181628190E08BCF65
:103F100081E0F2CF282FE6E9F3E0438130E1431B53
:103F200008F440E08181628190E07DCF81E0F2CFB2
:103F3000CF93C62F80939A03862F0E9452178091A9
:103F4000060380FF18C020919A038EED91E0CC23E8
:103F500011F080EE91E01F922F939F938F9381E554
:103F600091E09F938F930E946D040F900F900F909C
:103F70000F900F900F90CF910895682F20919A0382
:103F800030E1230F08F42FEF822FD2CF81E0F5CF5D
:103F9000682F20919A0330E1231B08F420E0822F40
:103FA000C7CF81E0F5CFCF93C62F80939B03862F99
:103FB0000E9452178091060380FF18C020919B0336
:103FC0008EED91E0CC2311F080EE91E01F922F93C3
:103FD0009F938F9382E391E09F938F930E946D0450
:103FE0000F900F900F900F900F900F90CF9108951A
:103FF000682F80919B038F3F59F0E0E0811103C04F
:1040000081E0E1E0E81BF0E0E951FE4F8081CBCF99
:1040100080E0F7CF81E0ECCFFDCF08959CC70895F5
:104020000C94F80F0895EFE4F3E089E0DF011D92AE
:104030008A95E9F713C1FC01828190E0019665E061
:1040400070E00E94A7329C01938181E092171306D1
:1040500009F080E008950F931F93CF93DF93EC0155
:10406000162F042FE8DF811117C08A8190E0FE012E
:10407000E80FF91F00FB17F91483019665E070E063
:104080000E94A7328A8388818F5F888381E0DF91D5
:10409000CF911F910F91089580E0F9CFCF93DF93D7
:1040A000FC01EA01A38182818A17D9F0AE0FBF2FEC
:1040B000B11D14968C9187FB992790F98F77DB01BE
:1040C0008C939883838190E0019665E070E00E9474
:1040D000A732838381818F5F818381E0DF91CF91DC
:1040E000089580E0FBCF462F682F8FE493E0B3CF95
:1040F000AB01BC018FE493E0D1CFCF93DF93D62FF8
:104100000E948305C82F882341F06AE070E089EAA5
:10411000D11101C08AEA0E94EF078C2FDF91CF9165
:104120000895A2E0B0E0E7E9F0E20C94203380913A
:104130004E03882351F010924E03809151038093D7
:10414000520380914F0380935003C3D069DF182F2F
:10415000882379F010E004C069818A81CEDF102FB6
:10416000BE016F5F7F4FCE010296C2DF082F811123
:10417000F3CF812F2296E4E00C943C338FE891E05A
:104180000197F1F700C00000089590E06623E9F080
:104190008F5F9D4FFC0180818F3FB1F0E82FE2954A
:1041A000EF70F0E041A18F7021E030E0B90102C072
:1041B000660F771F8A95E2F7CB01962F909594238F
:1041C00091A392A1892B82A308958B5F9D4FE2CF8B
:1041D00090E06623A1F08F5F9D4FFC0120812F3F6F
:1041E00089F0E22FE295EF70F0E080A190E02F706F
:1041F00002C0959587952A95E2F7817008958B5FA7
:104200009D4FEBCF80E008950895CF93DF93C0E0FA
:1042100080915803C81750F0B1DFC0E08091580377
:10422000C81760F0F1DFDF91CF91089560E08C2F27
:10423000ACDF61E08C2FA9DFCF5FEACF60E08C2F8D
:10424000C7DFD82F61E08C2FC3DFEC2FF0E0E35AFB
:10425000FC4F880F8D2B8083CF5FE0CF84E080936D
:104260005803D3CF1F93CF93DF93182FE42FEE0F74
:104270006E2BC82FD0E0DE01A35ABC4FEC918E2FDD
:104280008370681711F1EE0FEE0FE62BEC93EF70D1
:10429000F0E0EF50FE4FC75ADC4F90818881980FB5
:1042A000988394301CF060E0812F1DDF88818D3F62
:1042B0001CF461E0812F17DF8881082E000C990B18
:1042C00064E070E00E94BB328883DF91CF911F9140
:1042D0000895CF93DF93C0E080915803C81718F07A
:1042E000DF91CF91089561E08C2F72DFD82F60E0CD
:1042F0008C2F6EDF682F4D2F8C2FB4DFCF5FECCF6C
:10430000879A0895FC01EE0FFF1FE80FF91FE55390
:10431000FC4F6183408322830895EBECF3E08183BB
:1043200060834283339693E0EF3EF907C1F7089527
:1043300031B33F7721B320684FB7F8948BEC93E00B
:10434000FC010196508168E021BB000000C057FFCE
:1043500031BB550F000000C000C000C031BB00C021
:104360006A9591F753E08F3E950751F74FBF8FE560
:1043700094E00197F1F700C0000008950C94880FB5
:10438000089580E00E948413817008950E947B1438
:104390002FEF86E791E0215080409040E1F700C088
:1043A00000000E947B14EDDF882319F0E7DF0C94F6
:1043B000C92A0895EBCF0895CF93DF93EB0186319F
:1043C0009C4701F50E94430E9D81992391F08A7AC2
:1043D00091E009F490E090936103811108C089E2B3
:1043E00096D60E94F00E80E0DF91CF91089585E38C
:1043F000F7CF80916103811103C089E29FD6F1CF8D
:1044000085E3FCCF81E0F0CFCF93DF93EC01FB019C
:104410008581882309F4CEC09E01305723323105AF
:1044200008F0AEC08CE893E00E94920FFE01E150CC
:10443000F047E232F10520F4E059FB4C0C940C33C8
:1044400080918C03816080938C0393C080918D0355
:10445000886080938D038DC080918C038260F3CF40
:1044600080918C038460EFCF80918C038860EBCFC8
:1044700080918D038160EDCF80918D038260E9CFC3
:1044800080918C038061DFCF80918C038062DBCFD1
:1044900080918C038064D7CF0E94230A80918C0383
:1044A0008068D1CF80918C038C60CDCF80918D03BB
:1044B0008360CFCF80918C038E7FC5CF80918D0399
:1044C000877FC7CF80918C038D7FBDCF80918C0378
:1044D0008B7FB9CF80918C03877FB5CF80918D037F
:1044E0008E7FB7CF80918D038D7FB3CF80918C036A
:1044F0008F7EA9CF80918C038F7DA5CF80918C0377
:104500008F7BA1CF0E94230A80918C038F779BCF52
:1045100080918C03837F97CF80918D038C7F99CF7F
:1045200080918C0382FB992790F921E0922790FBE0
:1045300082F990FB83F987CF80918D03982F909516
:1045400091708E7F892B90FB81F983CF90918C03A2
:10455000892F8F7B96FF806476CF0E94230A9091EB
:104560008C03892F97FB87F980586DCF81E00E94DB
:104570009A0F8CE893E00E94940F0E94230A80E037
:10458000DF91CF91089580E0F2CF90918C03892F35
:104590008F7E94FF806157CF90918C03892F8E7FFF
:1045A00090FF816050CF90918D03892F877F93FF7B
:1045B00088604FCF81E0E4CF282F35EB2303C00183
:1045C000112497FF04C080589109892F08958058BD
:1045D0009F4FFBCF8091680380FF0DC06091480121
:1045E00070E0660F771F6038710570F56115710511
:1045F00069F1862F089581FF07C06091480184E02A
:10460000689FB0011124EFCF6091480182FD0AC07C
:10461000809167038823A9F02091470160914801A8
:10462000821710F088E0ECCF869FC001112433E0A0
:10463000880F991F3A95E1F7622F70E00E94BB3214
:10464000D2CF68E070E0D5CF8FE7089581E008957C
:104650008091680380FF0CC06091440170E0759503
:104660006795759567956115710549F1862F0895D0
:1046700081FF06C06091440170E075956795F3CFA6
:104680006091440182FD0BC0909166039923A1F0D3
:104690006091430180914401961738F0682F70E0D3
:1046A0006038710500F38FE70895899FC0011124D8
:1046B00070E00E94BB32F4CF61E070E0D7CF81E0C0
:1046C00008958D3C29F486DF819580936C030895CD
:1046D0008E3C11F47FDFF9CF8F3C29F47BDF81958D
:1046E00080936B030895803D11F474DFF9CF893D09
:1046F00021F4AEDF80936D0308958A3D19F4A8DF9D
:104700008195F8CF8B3D29F4A3DF819580936E03CB
:1047100008958C3D11F49CDFF9CF9FE2980F9830FB
:1047200070F4815D990B21E030E001C0220F8A9581
:10473000EAF780916A03822B80936A0308958D3D86
:1047400031F48091680381608093680308958E3D01
:1047500021F4809168038260F7CF8F3DB9F7809193
:1047600068038460F1CF40916B038D3C59F48091D4
:104770006C0387FF0DC010926C0341110BC01092A7
:10478000670308C08E3C81F480916C0318169CF37B
:10479000442381F080916D0390916E03892B09F081
:1047A0005AC01092660308958F3C49F447FFF0CF3A
:1047B00010926B0380916C038111ECCFE0CF803DB0
:1047C00019F41416ACF3E4CF90916D03893D29F4EC
:1047D0001916F4F610926D03DBCF8A3D19F497FF9A
:1047E000D7CFF8CF90916E038B3D29F497FFD0CFB0
:1047F00010926E03CDCF8C3D19F41916CCF3C8CFAF
:104800009FE2980F983090F4815D990B21E030E0A1
:10481000B90102C0660F771F8A95E2F7CB01809538
:1048200090916A03892380936A03B2CF8D3D31F45E
:10483000809168038E7F80936803AACF8E3D21F418
:10484000809168038D7FF7CF8F3D09F0A1CF8091D4
:1048500068038B7FF0CF08958091060383FF96C095
:1048600080E794E09F938F930E946D0480916A0388
:104870001F928F938BE694E09F938F930E946D0419
:1048800089E694E09F938F930E946D0480916B035F
:10489000282F082E000C330B3F938F9386E694E06D
:1048A0009F938F930E946D0484E694E09F938F936F
:1048B0000E946D0480916C03282F082E000C330B8E
:1048C0003F938F9381E694E09F938F930E946D04B2
:1048D0008FE594E09F938F930E946D0480916D0308
:1048E000282F082E000C330B3F938F938CE594E018
:1048F0009F938F930E946D048AE594E09F938F931A
:104900000E946D0480916E03282F082E000C330B3B
:104910003F938F9387E594E09F938F930E946D045C
:1049200084E594E09F938F930E946D048DB79EB7AA
:1049300080960FB6F8949EBF0FBE8DBF809167031F
:104940001F928F9381E594E09F938F930E946D0453
:104950008FE494E09F938F930E946D04809168038D
:104960001F928F938CE494E09F938F930E946D0429
:1049700089E494E09F938F930E946D048DB79EB756
:104980000C960FB6F8949EBF0FBE8DBFB5D5209183
:104990006B0330916C03232B21F08093640390937D
:1049A000650320916D0330916E03232B21F08093DA
:1049B00062039093630389E693E06AC286E0E9E6C6
:1049C000F3E0DF011D928A95E9F7109267031092D8
:1049D0006603109268030895FC01828181110DC065
:1049E000838181110AC08481811107C081E0958192
:1049F000911101C080E08170089581E0FCCFA6E0B4
:104A0000B0E0E5E0F5E20C94213386E0E9E6F3E07E
:104A1000DE01119601900D928A95E1F710926B03D9
:104A200010926C0310926D0310926E038B819C8127
:104A3000892B81F08091640390916503CED49C0111
:104A4000809167038823A9F1909149019217130679
:104A500008F43CC08D819E81892B89F0809162038E
:104A600090916303BAD49C0180916603882309F472
:104A700063C0909145019217130608F46BC0BE0104
:104A80006F5F7F4F89E693E089D3811104C089E687
:104A900093E0A2DF8111E0DE86E0FE013196A9E617
:104AA000B3E001900D928A95E1F72696E3E00C942D
:104AB0003D3340914A019AE0499FA00111244217D9
:104AC000530740F68F5F8093670302C08F3FD1F793
:104AD0001B81112351F07EDD9FEF11160CF491E044
:104AE000899F802D112480936B031C81112351F029
:104AF00071DD9FEF11160CF491E0899F802D112438
:104B000080936C0380916B03882309F4A3CF1091E9
:104B10006C03112309F49ECF4FDD882349F0809365
:104B20006B03812F49DD882329F080936C0392CF9A
:104B300081E0F5CF81E0F9CF409146019AE0499FAD
:104B4000A00111244217530708F099CF8F5F80937B
:104B5000660302C08F3FD1F71D81112351F078DD2C
:104B60009FEF11160CF491E0899F802D1124809302
:104B70006D031E81112351F06BDD9FEF11160CF4B4
:104B800091E0899F802D112480936E0380916D03A5
:104B9000882309F474CF10916E03112309F46FCFA9
:104BA0000BDD882349F080936D03812F05DD882379
:104BB00029F080936E0363CF81E0F5CF81E0F9CFD8
:104BC0000F931F93CF93DF93C42FD22FFC018581C6
:104BD0008823C1F0409371038FD490937003809326
:104BE0006F0380E28C0F883040F4C77081E001C011
:104BF000880FCA95EAF70E940C08DF91CF911F91A8
:104C00000F91089510917103141331C080916F03B7
:104C100090917003E2D3883C910548F5C0E2CD0F36
:104C20001D17B9F080E2810F883040F4177081E0E1
:104C300001C0880F1A95EAF70E941108C83048F49D
:104C400081E09D2F977001C0880F9A95EAF70E9426
:104C50000C08802F0E940508C83078F6D77081E0D4
:104C600001C0880FDA95EAF70E941108C6CF80E2EA
:104C70008C0F883010F6C77081E001C0880FCA958C
:104C8000EAF7F2CF0F93FC01CB01E851FC47E73084
:104C9000F10588F5EE56FB4C0C940C3306E221EE40
:104CA00041EE6AE17CE78CDF80E00F91089507E236
:104CB00025EE45EE6BE17CE7F6CF06E221EE40EE15
:104CC00068E17CE7F0CF07E225EE44EE69E17CE79E
:104CD000EACF06E221EE42EE6CE17CE7E4CF07E2A8
:104CE00025EE46EE6DE17CE7DECF08E221E045EE01
:104CF0006EE17CE7D8CFFB018581882319F0109203
:104D00007103D3CF81E0D1CF909377038093760363
:104D1000089508950895DDD2982F81E0913009F02B
:104D200080E00895E0917603F0917703309739F0B1
:104D30000190F081E02D309711F00995089580E001
:104D40000895EF92FF920F931F93CF93DF93EC019F
:104D5000E0917603F09177033097F1F10280F381CF
:104D6000E02D3097C9F109958091060382FF34C088
:104D700080FF0DC088811F928F9388EB94E09F93F2
:104D80008F930E946D040F900F900F900F907E01F3
:104D900086E0E80EF11C02EB14E08091060380FF30
:104DA0000BC08A811F928F931F930F930E946D04F3
:104DB0000F900F900F900F902196CE15DF0569F799
:104DC0008091060380FF08C080EB94E09F938F934F
:104DD0000E946D040F900F90CDB7DEB7E6E00C9403
:104DE0003A33EF92FF920F931F93CF93DF93EC012F
:104DF000E0917603F0917703309709F444C0848101
:104E00009581892B09F43FC086E088830480F58171
:104E1000E02DCE0109958091060382FF34C080FF0A
:104E20000DC089811F928F938BE994E09F938F939C
:104E30000E946D040F900F900F900F907E018EE1F5
:104E4000E80EF11C05E914E08091060380FF0BC019
:104E50008A811F928F931F930F930E946D040F906E
:104E60000F900F900F902196CE15DF0569F7809176
:104E7000060380FF08C083E994E09F938F930E940C
:104E80006D040F900F90CDB7DEB7E6E00C943A3387
:104E9000DC01E0917603F0917703309759F0868139
:104EA0009781892B39F082E08C930680F781E02D81
:104EB000CD0109950895A3E0B0E0E1E6F7E20C9496
:104EC00022339C018091740390917503821793079C
:104ED000B1F03093750320937403E0917603F09161
:104EE0007703309761F00084F185E02D309739F039
:104EF00083E089833B832A83CE010196099523961B
:104F0000E2E00C943E33A3E0B0E0E9E8F7E20C9471
:104F100022339C018091720390917303821793074F
:104F2000B1F03093730320937203E0917603F09114
:104F30007703309761F00084F185E02D309739F0E8
:104F400084E089833B832A83CE01019609952396C9
:104F5000E2E00C943E33E0917603F09177033097D2
:104F600031F00284F385E02D309709F0099508951A
:104F7000CF93DF93C0913B01D0913C012296CBDED1
:104F8000882381F080918C0387FF0CC0C091390188
:104F9000D0913A0122969EE180E0915028F4DF9171
:104FA000CF91089596E0F8CF29912223B1F38F5F36
:104FB000F4CFCF93C82F882319F1ADDE882319F1E0
:104FC00080918C0387FF1FC0EC2FE695E695E69550
:104FD000C03FB0F48091390190913A01E80FF92F68
:104FE000F11D228130E0C77081E090E002C0880F9F
:104FF000991FCA95E2F72823392381E0232B09F46E
:1050000080E0CF91089580913B0190913C01FC019B
:105010003296089621912C1721F0E817F907D1F75D
:10502000EFCF81E0EECF9C01FC0132968FEF90E054
:105030004191461751F08F3F19F4411101C0892F5A
:105040009F5F9630A9F78F3F09F40895280F311D0F
:1050500087FD3A95F901628308959C01FC0132961F
:10506000285F3F4F8191861303C0DF0111971C9287
:10507000E217F307B9F70895E62FE695E695E6956A
:10508000603F70F4E80FF92FF11D677021E030E008
:1050900001C0220F6A95EAF78281822B82830895EC
:1050A0008091060380FF0CC01F926F938FEE94E0F7
:1050B0009F938F930E946D040F900F900F900F900D
:1050C0000895E62FE695E695E695603F78F4E80FBB
:1050D000F92FF11D677081E090E001C0880F6A959B
:1050E000EAF780959281892382830895809106034F
:1050F00080FF0CC01F926F9381ED94E09F938F937C
:105100000E946D040F900F900F900F900895CF9311
:10511000C82F01DE6C2F882359F080918C0387FF04
:1051200007C08091390190913A01A6DFCF9108958F
:1051300080913B0190913C0176DFF8CFCF93C82F4F
:10514000EADD6C2F882359F080918C0387FF07C01C
:105150008091390190913A01B4DFCF910895809107
:105160003B0190913C0179DFF8CFD5DD882379F0C0
:1051700080918C0387FF0BC0E0913901F0913A01D7
:1051800032968EE1DF011D928A95E9F70895E0914C
:105190003B01F0913C01329686E0F4CFDC01FB014B
:1051A00011969C9111978181981322C012968C912F
:1051B0001297882319F0928189131AC013968C9143
:1051C0001397882319F09381891312C015968C9137
:1051D0001597882319F0958189130AC014969C911C
:1051E000992321F081E02481291303C080E001C0CC
:1051F00081E0817008950895FECF0895A4E0B0E0A5
:10520000E4E0F9E20C942233811112C081E0809332
:105210004E0180914B0190914C01A0914D01B091B4
:105220004E01BC01CD01E8DF2496E2E00C943E3350
:1052300082E0EDCFA4E0B0E0E0E2F9E20C942233AA
:1052400083E080934E0180914B0190914C01A0919D
:105250004D01B0914E01BC01CD01CEDF2496E2E0BC
:105260000C943E33CBCF0895A4E0B0E0EAE3F9E23A
:105270000C94223381E080934E0180914B019091F8
:105280004C01A0914D01B0914E01BC01CD01B4DFA4
:105290002496E2E00C943E33E7CF0895A4E0B0E01A
:1052A000E4E5F9E20C94223391E0811101C090E031
:1052B00090934D0180914B0190914C01A0914D0133
:1052C000B0914E01BC01CD0197DF2496E2E00C9431
:1052D0003E3380914D010895A4E0B0E0E2E7F9E2A9
:1052E0000C94223380934C0180914B0190914C019E
:1052F000A0914D01B0914E01BC01CD017DDF2496FE
:10530000E2E00C943E3380914C010895A4E0B0E0BB
:10531000ECE8F9E20C94223380934B0180914B012D
:1053200090914C01A0914D01B0914E01BC01CD0175
:1053300063DF2496E2E00C943E3380914B010895A4
:1053400008950895FECF089508950895F9CF08951A
:105350000F931F93CF93DF93F7DF0E947B14F5DF4A
:1053600008E713E0C0E0D0E08C2F0E948413F8011E
:1053700081938F0191E0811101C090E0D92BCF5F23
:10538000C43091F78D2FDF91CF911F910F91089528
:10539000E82FF0E0E858FC4F208130E081E090E019
:1053A00002C0880F991F6A95E2F72823392381E00C
:1053B000232B09F480E0089541110EC0E82FF0E09E
:1053C000E858FC4F81E090E001C0880F6A95EAF749
:1053D00080959081892380830895CF93DF93EC019A
:1053E0008BD08C1B9D0BDF91CF910895CF92DF92D4
:1053F000EF92FF92CF93DF9300D000D0CDB7DEB70E
:105400006B017C0185D0DC01CB018C199D09AE09B3
:10541000BF09BC01CD010F900F900F900F90DF914D
:10542000CF91FF90EF90DF90CF90089585B780687F
:1054300085BF85B7806885BF08951F921FB61F92EC
:1054400011248F939F93AF93BF9380917C0381111D
:1054500013C08091EF039091F003A091F103B091FC
:10546000F2034196A11DB11D8093EF039093F003C9
:10547000A093F103B093F203BF91AF919F918F91ED
:105480001F901FBE1F9018958091F703843031F153
:105490000E94B80610927C0388E190E020E40FB6E9
:1054A000F894A895809360000FBE2093600083B7A6
:1054B000817F846083BF83B7816083BF7894889540
:1054C00083B78E7F83BF0FB6F894A8958091600054
:1054D000886180936000109260000FBE08950E9462
:1054E000230A0C94C10682E084BD93E095BD9AEF37
:1054F00097BD80936E0008952FB7F8948091EF03C5
:105500009091F003A091F103B091F2032FBF0895A1
:10551000A4E0B0E0EEE8FAE20C9422338FB7F894FE
:105520002091EF033091F0034091F1035091F20389
:1055300029833A834B835C838FBF69817A818B8116
:105540009C812496E2E00C943E3378941F921FB61F
:105550001F9211248F939F93AF93BF938091EF037A
:105560009091F003A091F103B091F2030196A11D77
:10557000B11D8093EF039093F003A093F103B093D8
:10558000F203BF91AF919F918F911F901FBE1F900B
:10559000189581E08093E00080E28093D80010921B
:1055A000C9008FE19EE40197F1F700C0000087E099
:1055B00090EBDC018093000490930104A09302041B
:1055C000B093030488E19CE00FB6F894A89580930B
:1055D00060000FBE90936000FFCF88E19CE00FB6A3
:1055E000F894A895809360000FBE90936000FFCF61
:1055F000282FCB01BA013091F7033430D9F42F7042
:105600002093E9002FEF3091E800215035FD06C0CE
:1056100035ED3A95F1F700002111F5CF2091E80022
:1056200025FF08C050E040E0D9D28091E8008E7795
:105630008093E8000895792F603229F440E250E029
:10564000682F82E0D5CF0895BC0143E050E084E0AC
:10565000CFCFBC0146E050E084E0CACFBC0140E2BD
:1056600050E084E0C5CFCF93DF93D82FC92F31DE30
:1056700048E050E06D2F7C2F81E0BADF88E0ED2F0D
:10568000FC2FA0E8B3E001900D928A95E1F7DF913D
:10569000CF910895A0E2B0E0EFE4FBE2D3C78091A0
:1056A000F703843001F583E08093E9008091E800FE
:1056B00082FF19C08091E80090E085FF08C050E0AB
:1056C00040E060E270E0CE010196D5D291E0809199
:1056D000E8008B778093E800992329F060E2CE01FF
:1056E00001960E947604A096E2E0C8C7089583E37D
:1056F00095E09F938F930E946D048091F6030F9025
:105700000F90811107C03DD494D48091E200846051
:105710008093E20008958FE295E09F938F930E941B
:105720006D041092F6030F900F9008958BE295E0B0
:105730009F938F930E946D0497DD81E0AFDD0F9002
:105740000F90089587E295E09F938F930E946D04D8
:105750006091F30381E0611101C080E06BDD0F9087
:105760000F90089583E295E09F938F930E946D04BC
:105770009091F70381E0943009F080E06091F303A9
:1057800071DD0F900F90089520917E032F5F822F7F
:1057900062E3D1D6992319F020937E0308951092E5
:1057A0007E0380917F038823F1F08091F70384309A
:1057B000C1F49091E9009F702091EC00822F8170DC
:1057C00020FD80E8892B95E09093E9009091EB0013
:1057D00090FF04C09091EE0097FD08C08F708093F9
:1057E000E90010927F0308951092F1009091E80073
:1057F00095FDFACF9091E80090FFF0CF9091E800EE
:105800009E779093E800EACF42E061EC81E035D3E7
:1058100042E261EC84E031D342E261EC82E02DD3DC
:1058200042E260EC83E029D342E261EC85E025D3DB
:105830009091F70381E0943009F080E06091F303E8
:10584000DDCC8091F903893081F148F4823009F48C
:1058500097C0833009F458C0813041F008958A30F0
:1058600009F481C08B3009F469C008958091F80370
:10587000813A09F048C08091E800877F8093E80072
:105880008091FC039091FD03892B59F468E080E836
:1058900093E070E03DD28091E8008B778093E80040
:1058A000089560E090E080E0F4CF8091F8038132C9
:1058B00051F58091FC039091FD038D7F892B19F5A3
:1058C0008091E800877F8093E8008091E80082FF64
:1058D00016C09091F3008091F200029731F480910C
:1058E000F100813011F0863019F48091F100F4DC80
:1058F0008091E8008B778093E800F3D204C0809118
:10590000F7038111E2CF08958091F803813AD9F726
:105910008091FC039091FD03892BA9F78091E80009
:10592000877F8093E8008091E80080FFFCCFD1DC86
:105930008093F1008091E8008E77DDCF8091F803AD
:10594000813209F78091FC039091FD03892BD9F6F0
:105950008091E800877F8093E800C3D28091FA03AA
:105960009DDC0C94230A8091F803813261F68091CA
:10597000E800877F8093E800B4D28091FB03C6CC17
:105980008091F803813A09F0BECF8091E800877FCB
:105990008093E8008091E80080FFFCCFCEDCC8CF88
:1059A0009FB7F89410927F039FBF9091F7039430B4
:1059B00009F048C02091E9002F703091EC00932F3E
:1059C000917030FD90E8922B25E02093E900209122
:1059D000EB0020FF34C02091EE0027FF30C0209163
:1059E0007D03222321F02091E80025FF28C010929A
:1059F0007D0326E03091E80035FF14C08093F1006C
:105A00008091E80085FD27C08091E80080FFFCCFF1
:105A10008091E8008E778093E8009F709093E90072
:105A200080E008953091F703343049F43091EB0071
:105A300035FD05C0215041F481E080937D039F70C6
:105A40009093E9008FEF0895EFE9FFE03197F1F7C8
:105A500000C00000CFCF8FB7F89421E020937F03E0
:105A60008FBFDBCF84B7877F84BF0FB6F894A8952C
:105A700080916000886180936000109260000FBE8A
:105A800080E890E00FB6F8948093610090936100F5
:105A90000FBE02CC76D2CDD2E2EEF0E080818460FF
:105AA000808378942EC58FE491E02EC98091F7030E
:105AB000853089F48091060380FF08C08DE095E071
:105AC0009F938F930E946D040F900F908091F70326
:105AD000853011F004CD0895D7DC3ADC8823B1F38A
